{
  "contractName": "Marketplace",
  "abi": [
    {
      "inputs": [],
      "stateMutability": "nonpayable",
      "type": "constructor"
    },
    {
      "inputs": [],
      "name": "DeactivateCourse",
      "type": "error"
    },
    {
      "inputs": [],
      "name": "owner",
      "outputs": [
        {
          "internalType": "address payable",
          "name": "",
          "type": "address"
        }
      ],
      "stateMutability": "view",
      "type": "function",
      "constant": true
    },
    {
      "stateMutability": "payable",
      "type": "receive",
      "payable": true
    },
    {
      "inputs": [
        {
          "internalType": "bytes16",
          "name": "courseId",
          "type": "bytes16"
        },
        {
          "internalType": "bytes32",
          "name": "proof",
          "type": "bytes32"
        }
      ],
      "name": "purchaseCourse",
      "outputs": [
        {
          "internalType": "bytes32",
          "name": "",
          "type": "bytes32"
        }
      ],
      "stateMutability": "payable",
      "type": "function",
      "payable": true
    },
    {
      "inputs": [
        {
          "internalType": "bytes32",
          "name": "courseHash",
          "type": "bytes32"
        }
      ],
      "name": "repurchaseCourse",
      "outputs": [],
      "stateMutability": "payable",
      "type": "function",
      "payable": true
    },
    {
      "inputs": [
        {
          "internalType": "bytes32",
          "name": "courseHash",
          "type": "bytes32"
        }
      ],
      "name": "activateCourse",
      "outputs": [],
      "stateMutability": "nonpayable",
      "type": "function"
    },
    {
      "inputs": [
        {
          "internalType": "bytes32",
          "name": "courseHash",
          "type": "bytes32"
        }
      ],
      "name": "deactivateCourse",
      "outputs": [],
      "stateMutability": "nonpayable",
      "type": "function"
    },
    {
      "inputs": [
        {
          "internalType": "address",
          "name": "newOwner",
          "type": "address"
        }
      ],
      "name": "transferOwnership",
      "outputs": [],
      "stateMutability": "nonpayable",
      "type": "function"
    },
    {
      "inputs": [
        {
          "internalType": "uint256",
          "name": "amount",
          "type": "uint256"
        }
      ],
      "name": "withdrawFunds",
      "outputs": [],
      "stateMutability": "nonpayable",
      "type": "function"
    },
    {
      "inputs": [],
      "name": "emergancyWithdraw",
      "outputs": [],
      "stateMutability": "nonpayable",
      "type": "function"
    },
    {
      "inputs": [],
      "name": "stopContract",
      "outputs": [],
      "stateMutability": "nonpayable",
      "type": "function"
    },
    {
      "inputs": [],
      "name": "selfDestruct",
      "outputs": [],
      "stateMutability": "nonpayable",
      "type": "function"
    },
    {
      "inputs": [],
      "name": "resumeContract",
      "outputs": [],
      "stateMutability": "nonpayable",
      "type": "function"
    },
    {
      "inputs": [
        {
          "internalType": "bytes32",
          "name": "courseHash",
          "type": "bytes32"
        }
      ],
      "name": "getCourse",
      "outputs": [
        {
          "components": [
            {
              "internalType": "bytes32",
              "name": "courseHash",
              "type": "bytes32"
            },
            {
              "internalType": "uint256",
              "name": "id",
              "type": "uint256"
            },
            {
              "internalType": "uint256",
              "name": "price",
              "type": "uint256"
            },
            {
              "internalType": "bytes32",
              "name": "proof",
              "type": "bytes32"
            },
            {
              "internalType": "address",
              "name": "owner",
              "type": "address"
            },
            {
              "internalType": "enum Marketplace.State",
              "name": "state",
              "type": "uint8"
            }
          ],
          "internalType": "struct Marketplace.Course",
          "name": "",
          "type": "tuple"
        }
      ],
      "stateMutability": "view",
      "type": "function",
      "constant": true
    },
    {
      "inputs": [],
      "name": "getNumberOfCourses",
      "outputs": [
        {
          "internalType": "uint256",
          "name": "",
          "type": "uint256"
        }
      ],
      "stateMutability": "view",
      "type": "function",
      "constant": true
    },
    {
      "inputs": [],
      "name": "getOwner",
      "outputs": [
        {
          "internalType": "address",
          "name": "",
          "type": "address"
        }
      ],
      "stateMutability": "view",
      "type": "function",
      "constant": true
    },
    {
      "inputs": [
        {
          "internalType": "uint256",
          "name": "id",
          "type": "uint256"
        }
      ],
      "name": "getCourseHash",
      "outputs": [
        {
          "internalType": "bytes32",
          "name": "",
          "type": "bytes32"
        }
      ],
      "stateMutability": "view",
      "type": "function",
      "constant": true
    }
  ],
  "bytecode": "0x60806040526000600360146101000a81548160ff02191690831515021790555034801561002b57600080fd5b5061003b3361004060201b60201c565b610084565b80600360006101000a81548173ffffffffffffffffffffffffffffffffffffffff021916908373ffffffffffffffffffffffffffffffffffffffff16021790555050565b612159806100936000396000f3fe6080604052600436106100ec5760003560e01c80638da5cb5b1161008a5780639cb8a26a116100595780639cb8a26a146102b8578063c4bc5da5146102cf578063d76821cb146102e6578063f2fde38b14610316576100f3565b80638da5cb5b146101fc57806390ebed4314610227578063935d7e6d14610252578063987b57b91461027b576100f3565b80634b99f91a116100c65780634b99f91a146101615780636136e1eb146101785780638158045a14610194578063893d20e8146101d1576100f3565b806312253a6c146100f8578063155dd5ee1461010f5780633926257214610138576100f3565b366100f357005b600080fd5b34801561010457600080fd5b5061010d61033f565b005b34801561011b57600080fd5b506101366004803603810190610131919061168b565b6103ec565b005b34801561014457600080fd5b5061015f600480360381019061015a919061165e565b610597565b005b34801561016d57600080fd5b50610176610852565b005b610192600480360381019061018d919061165e565b610a08565b005b3480156101a057600080fd5b506101bb60048036038101906101b6919061168b565b610c14565b6040516101c89190611a17565b60405180910390f35b3480156101dd57600080fd5b506101e6610c31565b6040516101f391906119e1565b60405180910390f35b34801561020857600080fd5b50610211610c5b565b60405161021e91906119fc565b60405180910390f35b34801561023357600080fd5b5061023c610c81565b6040516102499190611bcd565b60405180910390f35b34801561025e57600080fd5b506102796004803603810190610274919061165e565b610c8b565b005b34801561028757600080fd5b506102a2600480360381019061029d919061165e565b610fb6565b6040516102af9190611bb2565b60405180910390f35b3480156102c457600080fd5b506102cd61109b565b005b3480156102db57600080fd5b506102e46111b5565b005b61030060048036038101906102fb919061161e565b611262565b60405161030d9190611a17565b60405180910390f35b34801561032257600080fd5b5061033d600480360381019061033891906115f1565b611477565b005b600360009054906101000a900473ffffffffffffffffffffffffffffffffffffffff1673ffffffffffffffffffffffffffffffffffffffff163373ffffffffffffffffffffffffffffffffffffffff16146103cf576040517f08c379a00000000000000000000000000000000000000000000000000000000081526004016103c690611a32565b60405180910390fd5b6001600360146101000a81548160ff021916908315150217905550565b600360009054906101000a900473ffffffffffffffffffffffffffffffffffffffff1673ffffffffffffffffffffffffffffffffffffffff163373ffffffffffffffffffffffffffffffffffffffff161461047c576040517f08c379a000000000000000000000000000000000000000000000000000000000815260040161047390611a32565b60405180910390fd5b6000479050818110156104c4576040517f08c379a00000000000000000000000000000000000000000000000000000000081526004016104bb90611b72565b60405180910390fd5b6000600360009054906101000a900473ffffffffffffffffffffffffffffffffffffffff1673ffffffffffffffffffffffffffffffffffffffff168360405161050c906119cc565b60006040518083038185875af1925050503d8060008114610549576040519150601f19603f3d011682016040523d82523d6000602084013e61054e565b606091505b5050905080610592576040517f08c379a000000000000000000000000000000000000000000000000000000000815260040161058990611a52565b60405180910390fd5b505050565b60001515600360149054906101000a900460ff161515146105ed576040517f08c379a00000000000000000000000000000000000000000000000000000000081526004016105e490611ab2565b60405180910390fd5b600360009054906101000a900473ffffffffffffffffffffffffffffffffffffffff1673ffffffffffffffffffffffffffffffffffffffff163373ffffffffffffffffffffffffffffffffffffffff161461067d576040517f08c379a000000000000000000000000000000000000000000000000000000000815260040161067490611a32565b60405180910390fd5b80600073ffffffffffffffffffffffffffffffffffffffff1660008083815260200190815260200160002060040160009054906101000a900473ffffffffffffffffffffffffffffffffffffffff1673ffffffffffffffffffffffffffffffffffffffff161415610723576040517f08c379a000000000000000000000000000000000000000000000000000000000815260040161071a90611b12565b60405180910390fd5b6000806000848152602001908152602001600020905060028081111561074c5761074b611d53565b5b8160040160149054906101000a900460ff1660028111156107705761076f611d53565b5b14156107a8576040517f1632830700000000000000000000000000000000000000000000000000000000815260040160405180910390fd5b600060028111156107bc576107bb611d53565b5b8160040160149054906101000a900460ff1660028111156107e0576107df611d53565b5b14610820576040517f08c379a000000000000000000000000000000000000000000000000000000000815260040161081790611b92565b60405180910390fd5b60018160040160146101000a81548160ff0219169083600281111561084857610847611d53565b5b0217905550505050565b600360009054906101000a900473ffffffffffffffffffffffffffffffffffffffff1673ffffffffffffffffffffffffffffffffffffffff163373ffffffffffffffffffffffffffffffffffffffff16146108e2576040517f08c379a00000000000000000000000000000000000000000000000000000000081526004016108d990611a32565b60405180910390fd5b600360149054906101000a900460ff16610931576040517f08c379a000000000000000000000000000000000000000000000000000000000815260040161092890611ad2565b60405180910390fd5b60004790506000600360009054906101000a900473ffffffffffffffffffffffffffffffffffffffff1673ffffffffffffffffffffffffffffffffffffffff168260405161097e906119cc565b60006040518083038185875af1925050503d80600081146109bb576040519150601f19603f3d011682016040523d82523d6000602084013e6109c0565b606091505b5050905080610a04576040517f08c379a00000000000000000000000000000000000000000000000000000000081526004016109fb90611a52565b60405180910390fd5b5050565b60001515600360149054906101000a900460ff16151514610a5e576040517f08c379a0000000000000000000000000000000000000000000000000000000008152600401610a5590611ab2565b60405180910390fd5b80600073ffffffffffffffffffffffffffffffffffffffff1660008083815260200190815260200160002060040160009054906101000a900473ffffffffffffffffffffffffffffffffffffffff1673ffffffffffffffffffffffffffffffffffffffff161415610b04576040517f08c379a0000000000000000000000000000000000000000000000000000000008152600401610afb90611b12565b60405180910390fd5b610b0d82611483565b610b4c576040517f08c379a0000000000000000000000000000000000000000000000000000000008152600401610b4390611a92565b60405180910390fd5b60008060008481526020019081526020016000209050600280811115610b7557610b74611d53565b5b8160040160149054906101000a900460ff166002811115610b9957610b98611d53565b5b14610bd9576040517f08c379a0000000000000000000000000000000000000000000000000000000008152600401610bd090611b32565b60405180910390fd5b60008160040160146101000a81548160ff02191690836002811115610c0157610c00611d53565b5b0217905550348160020181905550505050565b600060016000838152602001908152602001600020549050919050565b6000600360009054906101000a900473ffffffffffffffffffffffffffffffffffffffff16905090565b600360009054906101000a900473ffffffffffffffffffffffffffffffffffffffff1681565b6000600254905090565b60001515600360149054906101000a900460ff16151514610ce1576040517f08c379a0000000000000000000000000000000000000000000000000000000008152600401610cd890611ab2565b60405180910390fd5b600360009054906101000a900473ffffffffffffffffffffffffffffffffffffffff1673ffffffffffffffffffffffffffffffffffffffff163373ffffffffffffffffffffffffffffffffffffffff1614610d71576040517f08c379a0000000000000000000000000000000000000000000000000000000008152600401610d6890611a32565b60405180910390fd5b80600073ffffffffffffffffffffffffffffffffffffffff1660008083815260200190815260200160002060040160009054906101000a900473ffffffffffffffffffffffffffffffffffffffff1673ffffffffffffffffffffffffffffffffffffffff161415610e17576040517f08c379a0000000000000000000000000000000000000000000000000000000008152600401610e0e90611b12565b60405180910390fd5b60008060008481526020019081526020016000209050600280811115610e4057610e3f611d53565b5b8160040160149054906101000a900460ff166002811115610e6457610e63611d53565b5b1415610ea5576040517f08c379a0000000000000000000000000000000000000000000000000000000008152600401610e9c90611a72565b60405180910390fd5b60008160040160009054906101000a900473ffffffffffffffffffffffffffffffffffffffff1673ffffffffffffffffffffffffffffffffffffffff168260020154604051610ef3906119cc565b60006040518083038185875af1925050503d8060008114610f30576040519150601f19603f3d011682016040523d82523d6000602084013e610f35565b606091505b5050905080610f79576040517f08c379a0000000000000000000000000000000000000000000000000000000008152600401610f7090611b52565b60405180910390fd5b60028260040160146101000a81548160ff02191690836002811115610fa157610fa0611d53565b5b02179055506000826002018190555050505050565b610fbe611539565b6000808381526020019081526020016000206040518060c0016040529081600082015481526020016001820154815260200160028201548152602001600382015481526020016004820160009054906101000a900473ffffffffffffffffffffffffffffffffffffffff1673ffffffffffffffffffffffffffffffffffffffff1673ffffffffffffffffffffffffffffffffffffffff1681526020016004820160149054906101000a900460ff16600281111561107e5761107d611d53565b5b60028111156110905761108f611d53565b5b815250509050919050565b600360009054906101000a900473ffffffffffffffffffffffffffffffffffffffff1673ffffffffffffffffffffffffffffffffffffffff163373ffffffffffffffffffffffffffffffffffffffff161461112b576040517f08c379a000000000000000000000000000000000000000000000000000000000815260040161112290611a32565b60405180910390fd5b600360149054906101000a900460ff1661117a576040517f08c379a000000000000000000000000000000000000000000000000000000000815260040161117190611ad2565b60405180910390fd5b600360009054906101000a900473ffffffffffffffffffffffffffffffffffffffff1673ffffffffffffffffffffffffffffffffffffffff16ff5b600360009054906101000a900473ffffffffffffffffffffffffffffffffffffffff1673ffffffffffffffffffffffffffffffffffffffff163373ffffffffffffffffffffffffffffffffffffffff1614611245576040517f08c379a000000000000000000000000000000000000000000000000000000000815260040161123c90611a32565b60405180910390fd5b6000600360146101000a81548160ff021916908315150217905550565b6000801515600360149054906101000a900460ff161515146112b9576040517f08c379a00000000000000000000000000000000000000000000000000000000081526004016112b090611ab2565b60405180910390fd5b600083336040516020016112ce9291906119a0565b6040516020818303038152906040528051906020012090506112ef81611483565b1561132f576040517f08c379a000000000000000000000000000000000000000000000000000000000815260040161132690611af2565b60405180910390fd5b60006002600081548092919061134490611cad565b9190505590508160016000838152602001908152602001600020819055506040518060c001604052808381526020018281526020013481526020018581526020013373ffffffffffffffffffffffffffffffffffffffff168152602001600060028111156113b5576113b4611d53565b5b8152506000808481526020019081526020016000206000820151816000015560208201518160010155604082015181600201556060820151816003015560808201518160040160006101000a81548173ffffffffffffffffffffffffffffffffffffffff021916908373ffffffffffffffffffffffffffffffffffffffff16021790555060a08201518160040160146101000a81548160ff0219169083600281111561146457611463611d53565b5b0217905550905050819250505092915050565b611480816114f5565b50565b60008060008084815260200190815260200160002060040160009054906101000a900473ffffffffffffffffffffffffffffffffffffffff1690503373ffffffffffffffffffffffffffffffffffffffff168173ffffffffffffffffffffffffffffffffffffffff1614915050919050565b80600360006101000a81548173ffffffffffffffffffffffffffffffffffffffff021916908373ffffffffffffffffffffffffffffffffffffffff16021790555050565b6040518060c0016040528060008019168152602001600081526020016000815260200160008019168152602001600073ffffffffffffffffffffffffffffffffffffffff1681526020016000600281111561159757611596611d53565b5b81525090565b6000813590506115ac816120c7565b92915050565b6000813590506115c1816120de565b92915050565b6000813590506115d6816120f5565b92915050565b6000813590506115eb8161210c565b92915050565b60006020828403121561160757611606611d82565b5b60006116158482850161159d565b91505092915050565b6000806040838503121561163557611634611d82565b5b6000611643858286016115b2565b9250506020611654858286016115c7565b9150509250929050565b60006020828403121561167457611673611d82565b5b6000611682848285016115c7565b91505092915050565b6000602082840312156116a1576116a0611d82565b5b60006116af848285016115dc565b91505092915050565b6116c181611c16565b82525050565b6116d081611c04565b82525050565b6116df81611c04565b82525050565b6116f66116f182611c04565b611cf6565b82525050565b61170d61170882611c28565b611d08565b82525050565b61171c81611c54565b82525050565b61172b81611c54565b82525050565b61173a81611c9b565b82525050565b600061174d600a83611bf3565b915061175882611d94565b602082019050919050565b6000611770602983611bf3565b915061177b82611dbd565b604082019050919050565b6000611793601e83611bf3565b915061179e82611e0c565b602082019050919050565b60006117b6603583611bf3565b91506117c182611e35565b604082019050919050565b60006117d9603083611bf3565b91506117e482611e84565b604082019050919050565b60006117fc601c83611bf3565b915061180782611ed3565b602082019050919050565b600061181f602783611bf3565b915061182a82611efc565b604082019050919050565b6000611842602383611bf3565b915061184d82611f4b565b604082019050919050565b6000611865603483611bf3565b915061187082611f9a565b604082019050919050565b6000611888602683611bf3565b915061189382611fe9565b604082019050919050565b60006118ab600083611be8565b91506118b682612038565b600082019050919050565b60006118ce603683611bf3565b91506118d98261203b565b604082019050919050565b60006118f1601c83611bf3565b91506118fc8261208a565b602082019050919050565b60c08201600082015161191d6000850182611713565b5060208201516119306020850182611982565b5060408201516119436040850182611982565b5060608201516119566060850182611713565b50608082015161196960808501826116c7565b5060a082015161197c60a0850182611731565b50505050565b61198b81611c91565b82525050565b61199a81611c91565b82525050565b60006119ac82856116fc565b6010820191506119bc82846116e5565b6014820191508190509392505050565b60006119d78261189e565b9150819050919050565b60006020820190506119f660008301846116d6565b92915050565b6000602082019050611a1160008301846116b8565b92915050565b6000602082019050611a2c6000830184611722565b92915050565b60006020820190508181036000830152611a4b81611740565b9050919050565b60006020820190508181036000830152611a6b81611763565b9050919050565b60006020820190508181036000830152611a8b81611786565b9050919050565b60006020820190508181036000830152611aab816117a9565b9050919050565b60006020820190508181036000830152611acb816117cc565b9050919050565b60006020820190508181036000830152611aeb816117ef565b9050919050565b60006020820190508181036000830152611b0b81611812565b9050919050565b60006020820190508181036000830152611b2b81611835565b9050919050565b60006020820190508181036000830152611b4b81611858565b9050919050565b60006020820190508181036000830152611b6b8161187b565b9050919050565b60006020820190508181036000830152611b8b816118c1565b9050919050565b60006020820190508181036000830152611bab816118e4565b9050919050565b600060c082019050611bc76000830184611907565b92915050565b6000602082019050611be26000830184611991565b92915050565b600081905092915050565b600082825260208201905092915050565b6000611c0f82611c71565b9050919050565b6000611c2182611c71565b9050919050565b60007fffffffffffffffffffffffffffffffff0000000000000000000000000000000082169050919050565b6000819050919050565b6000819050611c6c826120b3565b919050565b600073ffffffffffffffffffffffffffffffffffffffff82169050919050565b6000819050919050565b6000611ca682611c5e565b9050919050565b6000611cb882611c91565b91507fffffffffffffffffffffffffffffffffffffffffffffffffffffffffffffffff821415611ceb57611cea611d24565b5b600182019050919050565b6000611d0182611d12565b9050919050565b6000819050919050565b6000611d1d82611d87565b9050919050565b7f4e487b7100000000000000000000000000000000000000000000000000000000600052601160045260246000fd5b7f4e487b7100000000000000000000000000000000000000000000000000000000600052602160045260246000fd5b600080fd5b60008160601b9050919050565b7f4f6e6c79206f776e657200000000000000000000000000000000000000000000600082015250565b7f546865207472616e73666572206f662066756e647320776173206e6f7420737560008201527f636365737366756c210000000000000000000000000000000000000000000000602082015250565b7f436f7572736520697320616c7265616479206465616374697661746564210000600082015250565b7f596f7520617265206e6f7420746865206f776e6572206f662074686520636f7560008201527f7273652c2063616e607420726570757263686173650000000000000000000000602082015250565b7f54686520636f6e74726163742069732073746f707065642066726f6d2065786560008201527f637574696e67206279206f776e65722e00000000000000000000000000000000602082015250565b7f54686520636f6e7472616374206973204e4f542073746f707065642e00000000600082015250565b7f596f75206861766520616c72656164792070757263686173656420746869732060008201527f636f757273652100000000000000000000000000000000000000000000000000602082015250565b7f54686520636f7572736520707572636861736520646f6573206e6f742065786960008201527f7374210000000000000000000000000000000000000000000000000000000000602082015250565b7f546f2070757263686173652074686520636f757273652074686520737461746560008201527f206d757374206265204465616374697661746564000000000000000000000000602082015250565b7f5472616e7366657220746f206f776e6572206f662074686520636f757273652060008201527f6661696c65640000000000000000000000000000000000000000000000000000602082015250565b50565b7f54686520776974686472617720616d6f756e7420697320657863656564696e6760008201527f2074686520636f6e7472616374732062616c616e636500000000000000000000602082015250565b7f436f7572736520697320616c7265616479206163746976617465642100000000600082015250565b600381106120c4576120c3611d53565b5b50565b6120d081611c04565b81146120db57600080fd5b50565b6120e781611c28565b81146120f257600080fd5b50565b6120fe81611c54565b811461210957600080fd5b50565b61211581611c91565b811461212057600080fd5b5056fea26469706673582212208780c976ab35d51d97a8d9b2d7a6605780e26f3052eff53c26a01efc0a10939564736f6c63430008070033",
  "immutableReferences": {},
  "source": "// SPDX-License-Identifier: MIT\r\npragma solidity >=0.4.22 <0.9.0;\r\n\r\ncontract Marketplace {\r\n    enum State {\r\n        Purchased,\r\n        Activated,\r\n        Deactivated\r\n    }\r\n\r\n    struct Course {\r\n        bytes32 courseHash;\r\n        uint256 id; //32 bytes\r\n        uint256 price; //32 bytes\r\n        bytes32 proof; // 32 bytes\r\n        address owner; // 20 bytes\r\n        State state; // 1 byte uint8=8bits\r\n    }\r\n\r\n    mapping(bytes32 => Course) private ownedCourses;\r\n\r\n    mapping(uint256 => bytes32) private ownedCourseHash;\r\n\r\n    uint256 totalCoursesOwned;\r\n\r\n    address payable public owner;\r\n\r\n    bool isStopped = false;\r\n\r\n    constructor() {\r\n        setContractOwner(msg.sender);\r\n    }\r\n\r\n    /// Cannot activate deactivated course, must me repurchased first!\r\n    error DeactivateCourse();\r\n\r\n    function purchaseCourse(\r\n        bytes16 courseId, // 10 ascii - 3130 hex => 0x00000000000000000000000000003130 + 0x => 32 chars\r\n        bytes32 proof\r\n    ) external payable onlyWhenNotStopped returns (bytes32) {\r\n        bytes32 courseHash = keccak256(abi.encodePacked(courseId, msg.sender));\r\n        require(\r\n            !checkOwner(courseHash),\r\n            \"You have already purchased this course!\"\r\n        );\r\n        uint256 id = totalCoursesOwned++;\r\n        ownedCourseHash[id] = courseHash;\r\n        ownedCourses[courseHash] = Course({\r\n            courseHash: courseHash,\r\n            id: id,\r\n            price: msg.value,\r\n            proof: proof,\r\n            owner: msg.sender,\r\n            state: State.Purchased\r\n        });\r\n\r\n        return courseHash;\r\n    }\r\n\r\n    function repurchaseCourse(bytes32 courseHash)\r\n        external\r\n        payable\r\n        onlyWhenNotStopped\r\n        isCourseCreated(courseHash)\r\n    {\r\n        require(\r\n            checkOwner(courseHash),\r\n            \"You are not the owner of the course, can`t repurchase\"\r\n        );\r\n        Course storage course = ownedCourses[courseHash];\r\n\r\n        require(\r\n            course.state == State.Deactivated,\r\n            \"To purchase the course the state must be Deactivated\"\r\n        );\r\n        course.state = State.Purchased;\r\n        course.price = msg.value;\r\n    }\r\n\r\n    function activateCourse(bytes32 courseHash)\r\n        external\r\n        onlyWhenNotStopped\r\n        onlyOwner\r\n        isCourseCreated(courseHash)\r\n    {\r\n        Course storage course = ownedCourses[courseHash];\r\n\r\n        if (course.state == State.Deactivated) {\r\n            revert DeactivateCourse();\r\n        }\r\n\r\n        require(\r\n            course.state == State.Purchased,\r\n            \"Course is already activated!\"\r\n        );\r\n\r\n        course.state = State.Activated;\r\n    }\r\n\r\n    function deactivateCourse(bytes32 courseHash)\r\n        external\r\n        onlyWhenNotStopped\r\n        onlyOwner\r\n        isCourseCreated(courseHash)\r\n    {\r\n        Course storage course = ownedCourses[courseHash];\r\n\r\n        require(\r\n            course.state != State.Deactivated,\r\n            \"Course is already deactivated!\"\r\n        );\r\n\r\n        (bool success, ) = course.owner.call{value: course.price}(\"\");\r\n        require(success, \"Transfer to owner of the course failed\");\r\n\r\n        course.state = State.Deactivated;\r\n        course.price = 0;\r\n    }\r\n\r\n    function transferOwnership(address newOwner) external {\r\n        setContractOwner(newOwner);\r\n    }\r\n\r\n    function withdrawFunds(uint256 amount) external onlyOwner {\r\n        uint256 contractFunds = address(this).balance;\r\n        require(\r\n            contractFunds >= amount,\r\n            \"The withdraw amount is exceeding the contracts balance\"\r\n        );\r\n        (bool success, ) = owner.call{value: amount}(\"\");\r\n        require(success, \"The transfer of funds was not successful!\");\r\n    }\r\n\r\n    function emergancyWithdraw() external onlyOwner onlyWhenStopped {\r\n        uint256 contractFunds = address(this).balance;\r\n\r\n        (bool success, ) = owner.call{value: contractFunds}(\"\");\r\n        require(success, \"The transfer of funds was not successful!\");\r\n    }\r\n\r\n    receive() external payable {}\r\n\r\n    function stopContract() external onlyOwner {\r\n        isStopped = true;\r\n    }\r\n\r\n    function selfDestruct() external onlyOwner onlyWhenStopped {\r\n        selfdestruct(owner);\r\n    }\r\n\r\n    function resumeContract() external onlyOwner {\r\n        isStopped = false;\r\n    }\r\n\r\n    //------------------------------------------------------getter functions----------------------------------------------\r\n\r\n    function getCourse(\r\n        bytes32 courseHash //get course by hash\r\n    ) external view returns (Course memory) {\r\n        return ownedCourses[courseHash];\r\n    }\r\n\r\n    function getNumberOfCourses() external view returns (uint256) {\r\n        return totalCoursesOwned;\r\n    }\r\n\r\n    function getOwner() external view returns (address) {\r\n        return owner;\r\n    }\r\n\r\n    function getCourseHash(uint256 id) external view returns (bytes32) {\r\n        return ownedCourseHash[id];\r\n    }\r\n\r\n    function checkOwner(bytes32 courseHash) private view returns (bool) {\r\n        address courseOwner = ownedCourses[courseHash].owner;\r\n\r\n        return courseOwner == msg.sender;\r\n    }\r\n\r\n    function setContractOwner(address newOwner) private {\r\n        owner = payable(newOwner);\r\n    }\r\n\r\n    //------------------------------------------------------modifiers----------------------------------------------\r\n    modifier onlyOwner() {\r\n        require(msg.sender == owner, \"Only owner\");\r\n        _;\r\n    }\r\n\r\n    modifier isCourseCreated(bytes32 _courseHash) {\r\n        require(\r\n            ownedCourses[_courseHash].owner !=\r\n                0x0000000000000000000000000000000000000000,\r\n            \"The course purchase does not exist!\"\r\n        );\r\n        _;\r\n    }\r\n\r\n    modifier onlyWhenNotStopped() {\r\n        require(\r\n            isStopped == false,\r\n            \"The contract is stopped from executing by owner.\"\r\n        );\r\n        _;\r\n    }\r\n    modifier onlyWhenStopped() {\r\n        require(\r\n            isStopped,\r\n            \"The contract is NOT stopped.\"\r\n        );\r\n        _;\r\n    }\r\n}\r\n",
  "sourcePath": "C:\\Udemy Master solidity and ethereum\\marketplace-eth\\contracts\\CourseMarketplace.sol",
  "compiler": {
    "name": "solc",
    "version": "0.8.7+commit.e28d00a7.Emscripten.clang"
  },
  "schemaVersion": "3.4.4",
  "updatedAt": "2022-02-06T07:42:20.834Z",
  "networkType": "ethereum",
  "devdoc": {
    "kind": "dev",
    "methods": {},
    "version": 1
  },
  "userdoc": {
    "errors": {
      "DeactivateCourse()": [
        {
          "notice": "Cannot activate deactivated course, must me repurchased first!"
        }
      ]
    },
    "kind": "user",
    "methods": {},
    "version": 1
  }
}