{
  "contractName": "Marketplace",
  "abi": [
    {
      "inputs": [],
      "stateMutability": "nonpayable",
      "type": "constructor"
    },
    {
      "inputs": [
        {
          "internalType": "bytes16",
          "name": "courseId",
          "type": "bytes16"
        },
        {
          "internalType": "bytes32",
          "name": "proof",
          "type": "bytes32"
        }
      ],
      "name": "purchaseCourse",
      "outputs": [
        {
          "internalType": "bytes32",
          "name": "",
          "type": "bytes32"
        }
      ],
      "stateMutability": "payable",
      "type": "function",
      "payable": true
    },
    {
      "inputs": [
        {
          "internalType": "bytes32",
          "name": "courseHash",
          "type": "bytes32"
        }
      ],
      "name": "getCourse",
      "outputs": [
        {
          "components": [
            {
              "internalType": "uint256",
              "name": "id",
              "type": "uint256"
            },
            {
              "internalType": "uint256",
              "name": "price",
              "type": "uint256"
            },
            {
              "internalType": "bytes32",
              "name": "proof",
              "type": "bytes32"
            },
            {
              "internalType": "address",
              "name": "owner",
              "type": "address"
            },
            {
              "internalType": "enum Marketplace.State",
              "name": "state",
              "type": "uint8"
            }
          ],
          "internalType": "struct Marketplace.Course",
          "name": "",
          "type": "tuple"
        }
      ],
      "stateMutability": "view",
      "type": "function",
      "constant": true
    },
    {
      "inputs": [],
      "name": "getNumberOfCourses",
      "outputs": [
        {
          "internalType": "uint256",
          "name": "",
          "type": "uint256"
        }
      ],
      "stateMutability": "view",
      "type": "function",
      "constant": true
    },
    {
      "inputs": [],
      "name": "getOwner",
      "outputs": [
        {
          "internalType": "address",
          "name": "",
          "type": "address"
        }
      ],
      "stateMutability": "view",
      "type": "function",
      "constant": true
    },
    {
      "inputs": [
        {
          "internalType": "uint256",
          "name": "id",
          "type": "uint256"
        }
      ],
      "name": "getCourseHash",
      "outputs": [
        {
          "internalType": "bytes32",
          "name": "",
          "type": "bytes32"
        }
      ],
      "stateMutability": "view",
      "type": "function",
      "constant": true
    },
    {
      "inputs": [
        {
          "internalType": "address",
          "name": "newOwner",
          "type": "address"
        }
      ],
      "name": "transferOwnership",
      "outputs": [],
      "stateMutability": "nonpayable",
      "type": "function"
    }
  ],
  "bytecode": "0x608060405234801561001057600080fd5b506100203361002560201b60201c565b610069565b80600360006101000a81548173ffffffffffffffffffffffffffffffffffffffff021916908373ffffffffffffffffffffffffffffffffffffffff16021790555050565b610bef806100786000396000f3fe6080604052600436106100555760003560e01c80638158045a1461005a578063893d20e81461009757806390ebed43146100c2578063987b57b9146100ed578063d76821cb1461012a578063f2fde38b1461015a575b600080fd5b34801561006657600080fd5b50610081600480360381019061007c91906106f8565b610183565b60405161008e91906108b1565b60405180910390f35b3480156100a357600080fd5b506100ac6101a0565b6040516100b99190610896565b60405180910390f35b3480156100ce57600080fd5b506100d76101ca565b6040516100e49190610927565b60405180910390f35b3480156100f957600080fd5b50610114600480360381019061010f91906106cb565b6101d4565b604051610121919061090c565b60405180910390f35b610144600480360381019061013f919061068b565b6102af565b60405161015191906108b1565b60405180910390f35b34801561016657600080fd5b50610181600480360381019061017c919061065e565b61045e565b005b600060016000838152602001908152602001600020549050919050565b6000600360009054906101000a900473ffffffffffffffffffffffffffffffffffffffff16905090565b6000600254905090565b6101dc6105b0565b6000808381526020019081526020016000206040518060a00160405290816000820154815260200160018201548152602001600282015481526020016003820160009054906101000a900473ffffffffffffffffffffffffffffffffffffffff1673ffffffffffffffffffffffffffffffffffffffff1673ffffffffffffffffffffffffffffffffffffffff1681526020016003820160149054906101000a900460ff16600281111561029257610291610a90565b5b60028111156102a4576102a3610a90565b5b815250509050919050565b60008083336040516020016102c592919061086a565b6040516020818303038152906040528051906020012090506102e6816104fa565b15610326576040517f08c379a000000000000000000000000000000000000000000000000000000000815260040161031d906108ec565b60405180910390fd5b60006002600081548092919061033b906109ea565b9190505590508160016000838152602001908152602001600020819055506040518060a001604052808281526020013481526020018581526020013373ffffffffffffffffffffffffffffffffffffffff168152602001600060028111156103a6576103a5610a90565b5b81525060008084815260200190815260200160002060008201518160000155602082015181600101556040820151816002015560608201518160030160006101000a81548173ffffffffffffffffffffffffffffffffffffffff021916908373ffffffffffffffffffffffffffffffffffffffff16021790555060808201518160030160146101000a81548160ff0219169083600281111561044b5761044a610a90565b5b0217905550905050819250505092915050565b600360009054906101000a900473ffffffffffffffffffffffffffffffffffffffff1673ffffffffffffffffffffffffffffffffffffffff163373ffffffffffffffffffffffffffffffffffffffff16146104ee576040517f08c379a00000000000000000000000000000000000000000000000000000000081526004016104e5906108cc565b60405180910390fd5b6104f78161056c565b50565b60008060008084815260200190815260200160002060030160009054906101000a900473ffffffffffffffffffffffffffffffffffffffff1690503373ffffffffffffffffffffffffffffffffffffffff168173ffffffffffffffffffffffffffffffffffffffff1614915050919050565b80600360006101000a81548173ffffffffffffffffffffffffffffffffffffffff021916908373ffffffffffffffffffffffffffffffffffffffff16021790555050565b6040518060a00160405280600081526020016000815260200160008019168152602001600073ffffffffffffffffffffffffffffffffffffffff1681526020016000600281111561060457610603610a90565b5b81525090565b60008135905061061981610b5d565b92915050565b60008135905061062e81610b74565b92915050565b60008135905061064381610b8b565b92915050565b60008135905061065881610ba2565b92915050565b60006020828403121561067457610673610abf565b5b60006106828482850161060a565b91505092915050565b600080604083850312156106a2576106a1610abf565b5b60006106b08582860161061f565b92505060206106c185828601610634565b9150509250929050565b6000602082840312156106e1576106e0610abf565b5b60006106ef84828501610634565b91505092915050565b60006020828403121561070e5761070d610abf565b5b600061071c84828501610649565b91505092915050565b61072e81610953565b82525050565b61073d81610953565b82525050565b61075461074f82610953565b610a33565b82525050565b61076b61076682610965565b610a45565b82525050565b61077a81610991565b82525050565b61078981610991565b82525050565b610798816109d8565b82525050565b60006107ab600a83610942565b91506107b682610ad1565b602082019050919050565b60006107ce602783610942565b91506107d982610afa565b604082019050919050565b60a0820160008201516107fa600085018261084c565b50602082015161080d602085018261084c565b5060408201516108206040850182610771565b5060608201516108336060850182610725565b506080820151610846608085018261078f565b50505050565b610855816109ce565b82525050565b610864816109ce565b82525050565b6000610876828561075a565b6010820191506108868284610743565b6014820191508190509392505050565b60006020820190506108ab6000830184610734565b92915050565b60006020820190506108c66000830184610780565b92915050565b600060208201905081810360008301526108e58161079e565b9050919050565b60006020820190508181036000830152610905816107c1565b9050919050565b600060a08201905061092160008301846107e4565b92915050565b600060208201905061093c600083018461085b565b92915050565b600082825260208201905092915050565b600061095e826109ae565b9050919050565b60007fffffffffffffffffffffffffffffffff0000000000000000000000000000000082169050919050565b6000819050919050565b60008190506109a982610b49565b919050565b600073ffffffffffffffffffffffffffffffffffffffff82169050919050565b6000819050919050565b60006109e38261099b565b9050919050565b60006109f5826109ce565b91507fffffffffffffffffffffffffffffffffffffffffffffffffffffffffffffffff821415610a2857610a27610a61565b5b600182019050919050565b6000610a3e82610a4f565b9050919050565b6000819050919050565b6000610a5a82610ac4565b9050919050565b7f4e487b7100000000000000000000000000000000000000000000000000000000600052601160045260246000fd5b7f4e487b7100000000000000000000000000000000000000000000000000000000600052602160045260246000fd5b600080fd5b60008160601b9050919050565b7f4f6e6c79206f776e657200000000000000000000000000000000000000000000600082015250565b7f596f75206861766520616c72656164792070757263686173656420746869732060008201527f636f757273652100000000000000000000000000000000000000000000000000602082015250565b60038110610b5a57610b59610a90565b5b50565b610b6681610953565b8114610b7157600080fd5b50565b610b7d81610965565b8114610b8857600080fd5b50565b610b9481610991565b8114610b9f57600080fd5b50565b610bab816109ce565b8114610bb657600080fd5b5056fea264697066735822122038e1d7aa0e160a8a72fc20fdd81dbf57545f35b34b307ba99a30604985583c5164736f6c63430008070033",
  "immutableReferences": {},
  "source": "// SPDX-License-Identifier: MIT\r\npragma solidity >=0.4.22 <0.9.0;\r\n\r\n\r\ncontract Marketplace {\r\n    enum State {\r\n        Purchased,\r\n        Activated,\r\n        Deactivated\r\n    }\r\n\r\n    struct Course {\r\n        uint256 id; //32 bytes\r\n        uint256 price; //32 bytes\r\n        bytes32 proof; // 32 bytes\r\n        address owner; // 20 bytes\r\n        State state; // 1 byte uint8=8bits\r\n    }\r\n\r\n    mapping(bytes32 => Course) private ownedCourses;\r\n\r\n    mapping(uint256 => bytes32) private ownedCourseHash;\r\n    //number of all courses and id of the courses\r\n    uint256 totalCoursesOwned;\r\n\r\n    address payable private owner;\r\n\r\n    constructor(){\r\n\r\n        setContractOwner(msg.sender);\r\n\r\n    }\r\n\r\n\r\n    //0x5B38Da6a701c568545dCfcB03FcB875f56beddC4\r\n    //0x00000000000000000000000000000313\r\n    //0x0000000000000000000000000000000000000000000000000000000000003130\r\n    //address + courseId = 000000000000000000000000000031305B38Da6a701c568545dCfcB03FcB875f56beddC4\r\n\r\n    //keccak256(abi.encodePacked(0xc4eaa3558504e2baa2669001b43f359b8418b44a4477ff417b4b007d7cc86e37))\r\n    function purchaseCourse(\r\n        bytes16 courseId, // 10 ascii - 3130 hex => 0x00000000000000000000000000003130 + 0x => 32 chars      0xc4eaa3558504e2baa2669001b43f359b8418b44a4477ff417b4b007d7cc86e37\r\n        bytes32 proof\r\n    ) external payable returns (bytes32) {\r\n        bytes32 courseHash = keccak256(abi.encodePacked(courseId, msg.sender));\r\n        require(!checkOwner(courseHash), \"You have already purchased this course!\");\r\n        uint256 id = totalCoursesOwned++;\r\n        ownedCourseHash[id] = courseHash;\r\n        ownedCourses[courseHash] = Course({\r\n            id: id,\r\n            price: msg.value,\r\n            proof: proof,\r\n            owner: msg.sender,\r\n            state: State.Purchased\r\n        });\r\n\r\n        return courseHash;\r\n    }\r\n\r\n    function getCourse (bytes32 courseHash) \r\n    external\r\n    view \r\n    returns(Course memory) {\r\n\r\n        return ownedCourses[courseHash];\r\n    }\r\n\r\n    function getNumberOfCourses() external view returns(uint){\r\n    \r\n\r\n    return totalCoursesOwned;\r\n\r\n    }\r\n\r\n    function getOwner() external view returns (address){\r\n        return owner;\r\n    }\r\n\r\n    function getCourseHash(uint id) external view returns(bytes32){\r\n\r\n\r\n        return ownedCourseHash[id];\r\n    }\r\n\r\n    function checkOwner(bytes32 courseHash) private view returns(bool){\r\n    \r\n        address courseOwner = ownedCourses[courseHash].owner;\r\n        \r\n\r\n        return courseOwner == msg.sender;\r\n        \r\n    \r\n    }\r\n\r\n    function transferOwnership(address newOwner)external onlyOwner{\r\n\r\n        setContractOwner(newOwner);\r\n    }\r\n\r\n    function setContractOwner(address newOwner) private {\r\n\r\n        owner = payable(newOwner);\r\n    }\r\n\r\n    modifier onlyOwner(){\r\n\r\n        require(msg.sender == owner, \"Only owner\");\r\n        _;\r\n    }\r\n\r\n\r\n\r\n\r\n}\r\n",
  "sourcePath": "C:\\Udemy Master solidity and ethereum\\marketplace-eth\\contracts\\CourseMarketplace.sol",
  "compiler": {
    "name": "solc",
    "version": "0.8.7+commit.e28d00a7.Emscripten.clang"
  },
  "schemaVersion": "3.4.4",
  "updatedAt": "2022-01-17T15:46:41.996Z",
  "networkType": "ethereum",
  "devdoc": {
    "kind": "dev",
    "methods": {},
    "version": 1
  },
  "userdoc": {
    "kind": "user",
    "methods": {},
    "version": 1
  }
}