{
  "contractName": "Marketplace",
  "abi": [
    {
      "inputs": [],
      "stateMutability": "nonpayable",
      "type": "constructor"
    },
    {
      "inputs": [
        {
          "internalType": "bytes16",
          "name": "courseId",
          "type": "bytes16"
        },
        {
          "internalType": "bytes32",
          "name": "proof",
          "type": "bytes32"
        }
      ],
      "name": "purchaseCourse",
      "outputs": [
        {
          "internalType": "bytes32",
          "name": "",
          "type": "bytes32"
        }
      ],
      "stateMutability": "payable",
      "type": "function",
      "payable": true
    },
    {
      "inputs": [
        {
          "internalType": "bytes32",
          "name": "courseHash",
          "type": "bytes32"
        }
      ],
      "name": "getCourse",
      "outputs": [
        {
          "components": [
            {
              "internalType": "bytes32",
              "name": "courseHash",
              "type": "bytes32"
            },
            {
              "internalType": "uint256",
              "name": "id",
              "type": "uint256"
            },
            {
              "internalType": "uint256",
              "name": "price",
              "type": "uint256"
            },
            {
              "internalType": "bytes32",
              "name": "proof",
              "type": "bytes32"
            },
            {
              "internalType": "address",
              "name": "owner",
              "type": "address"
            },
            {
              "internalType": "enum Marketplace.State",
              "name": "state",
              "type": "uint8"
            }
          ],
          "internalType": "struct Marketplace.Course",
          "name": "",
          "type": "tuple"
        }
      ],
      "stateMutability": "view",
      "type": "function",
      "constant": true
    },
    {
      "inputs": [],
      "name": "getNumberOfCourses",
      "outputs": [
        {
          "internalType": "uint256",
          "name": "",
          "type": "uint256"
        }
      ],
      "stateMutability": "view",
      "type": "function",
      "constant": true
    },
    {
      "inputs": [],
      "name": "getOwner",
      "outputs": [
        {
          "internalType": "address",
          "name": "",
          "type": "address"
        }
      ],
      "stateMutability": "view",
      "type": "function",
      "constant": true
    },
    {
      "inputs": [
        {
          "internalType": "uint256",
          "name": "id",
          "type": "uint256"
        }
      ],
      "name": "getCourseHash",
      "outputs": [
        {
          "internalType": "bytes32",
          "name": "",
          "type": "bytes32"
        }
      ],
      "stateMutability": "view",
      "type": "function",
      "constant": true
    },
    {
      "inputs": [
        {
          "internalType": "address",
          "name": "newOwner",
          "type": "address"
        }
      ],
      "name": "transferOwnership",
      "outputs": [],
      "stateMutability": "nonpayable",
      "type": "function"
    }
  ],
  "bytecode": "0x608060405234801561001057600080fd5b506100203361002560201b60201c565b610069565b80600360006101000a81548173ffffffffffffffffffffffffffffffffffffffff021916908373ffffffffffffffffffffffffffffffffffffffff16021790555050565b610c26806100786000396000f3fe6080604052600436106100555760003560e01c80638158045a1461005a578063893d20e81461009757806390ebed43146100c2578063987b57b9146100ed578063d76821cb1461012a578063f2fde38b1461015a575b600080fd5b34801561006657600080fd5b50610081600480360381019061007c919061071c565b610183565b60405161008e91906108e8565b60405180910390f35b3480156100a357600080fd5b506100ac6101a0565b6040516100b991906108cd565b60405180910390f35b3480156100ce57600080fd5b506100d76101ca565b6040516100e4919061095e565b60405180910390f35b3480156100f957600080fd5b50610114600480360381019061010f91906106ef565b6101d4565b6040516101219190610943565b60405180910390f35b610144600480360381019061013f91906106af565b6102b9565b60405161015191906108e8565b60405180910390f35b34801561016657600080fd5b50610181600480360381019061017c9190610682565b610478565b005b600060016000838152602001908152602001600020549050919050565b6000600360009054906101000a900473ffffffffffffffffffffffffffffffffffffffff16905090565b6000600254905090565b6101dc6105ca565b6000808381526020019081526020016000206040518060c0016040529081600082015481526020016001820154815260200160028201548152602001600382015481526020016004820160009054906101000a900473ffffffffffffffffffffffffffffffffffffffff1673ffffffffffffffffffffffffffffffffffffffff1673ffffffffffffffffffffffffffffffffffffffff1681526020016004820160149054906101000a900460ff16600281111561029c5761029b610ac7565b5b60028111156102ae576102ad610ac7565b5b815250509050919050565b60008083336040516020016102cf9291906108a1565b6040516020818303038152906040528051906020012090506102f081610514565b15610330576040517f08c379a000000000000000000000000000000000000000000000000000000000815260040161032790610923565b60405180910390fd5b60006002600081548092919061034590610a21565b9190505590508160016000838152602001908152602001600020819055506040518060c001604052808381526020018281526020013481526020018581526020013373ffffffffffffffffffffffffffffffffffffffff168152602001600060028111156103b6576103b5610ac7565b5b8152506000808481526020019081526020016000206000820151816000015560208201518160010155604082015181600201556060820151816003015560808201518160040160006101000a81548173ffffffffffffffffffffffffffffffffffffffff021916908373ffffffffffffffffffffffffffffffffffffffff16021790555060a08201518160040160146101000a81548160ff0219169083600281111561046557610464610ac7565b5b0217905550905050819250505092915050565b600360009054906101000a900473ffffffffffffffffffffffffffffffffffffffff1673ffffffffffffffffffffffffffffffffffffffff163373ffffffffffffffffffffffffffffffffffffffff1614610508576040517f08c379a00000000000000000000000000000000000000000000000000000000081526004016104ff90610903565b60405180910390fd5b61051181610586565b50565b60008060008084815260200190815260200160002060040160009054906101000a900473ffffffffffffffffffffffffffffffffffffffff1690503373ffffffffffffffffffffffffffffffffffffffff168173ffffffffffffffffffffffffffffffffffffffff1614915050919050565b80600360006101000a81548173ffffffffffffffffffffffffffffffffffffffff021916908373ffffffffffffffffffffffffffffffffffffffff16021790555050565b6040518060c0016040528060008019168152602001600081526020016000815260200160008019168152602001600073ffffffffffffffffffffffffffffffffffffffff1681526020016000600281111561062857610627610ac7565b5b81525090565b60008135905061063d81610b94565b92915050565b60008135905061065281610bab565b92915050565b60008135905061066781610bc2565b92915050565b60008135905061067c81610bd9565b92915050565b60006020828403121561069857610697610af6565b5b60006106a68482850161062e565b91505092915050565b600080604083850312156106c6576106c5610af6565b5b60006106d485828601610643565b92505060206106e585828601610658565b9150509250929050565b60006020828403121561070557610704610af6565b5b600061071384828501610658565b91505092915050565b60006020828403121561073257610731610af6565b5b60006107408482850161066d565b91505092915050565b6107528161098a565b82525050565b6107618161098a565b82525050565b6107786107738261098a565b610a6a565b82525050565b61078f61078a8261099c565b610a7c565b82525050565b61079e816109c8565b82525050565b6107ad816109c8565b82525050565b6107bc81610a0f565b82525050565b60006107cf600a83610979565b91506107da82610b08565b602082019050919050565b60006107f2602783610979565b91506107fd82610b31565b604082019050919050565b60c08201600082015161081e6000850182610795565b5060208201516108316020850182610883565b5060408201516108446040850182610883565b5060608201516108576060850182610795565b50608082015161086a6080850182610749565b5060a082015161087d60a08501826107b3565b50505050565b61088c81610a05565b82525050565b61089b81610a05565b82525050565b60006108ad828561077e565b6010820191506108bd8284610767565b6014820191508190509392505050565b60006020820190506108e26000830184610758565b92915050565b60006020820190506108fd60008301846107a4565b92915050565b6000602082019050818103600083015261091c816107c2565b9050919050565b6000602082019050818103600083015261093c816107e5565b9050919050565b600060c0820190506109586000830184610808565b92915050565b60006020820190506109736000830184610892565b92915050565b600082825260208201905092915050565b6000610995826109e5565b9050919050565b60007fffffffffffffffffffffffffffffffff0000000000000000000000000000000082169050919050565b6000819050919050565b60008190506109e082610b80565b919050565b600073ffffffffffffffffffffffffffffffffffffffff82169050919050565b6000819050919050565b6000610a1a826109d2565b9050919050565b6000610a2c82610a05565b91507fffffffffffffffffffffffffffffffffffffffffffffffffffffffffffffffff821415610a5f57610a5e610a98565b5b600182019050919050565b6000610a7582610a86565b9050919050565b6000819050919050565b6000610a9182610afb565b9050919050565b7f4e487b7100000000000000000000000000000000000000000000000000000000600052601160045260246000fd5b7f4e487b7100000000000000000000000000000000000000000000000000000000600052602160045260246000fd5b600080fd5b60008160601b9050919050565b7f4f6e6c79206f776e657200000000000000000000000000000000000000000000600082015250565b7f596f75206861766520616c72656164792070757263686173656420746869732060008201527f636f757273652100000000000000000000000000000000000000000000000000602082015250565b60038110610b9157610b90610ac7565b5b50565b610b9d8161098a565b8114610ba857600080fd5b50565b610bb48161099c565b8114610bbf57600080fd5b50565b610bcb816109c8565b8114610bd657600080fd5b50565b610be281610a05565b8114610bed57600080fd5b5056fea264697066735822122088f26526509805d0a7573d89c6189099eff8a499cc2c4ebd7c959d8a9a64ed7664736f6c63430008070033",
  "immutableReferences": {},
  "source": "// SPDX-License-Identifier: MIT\r\npragma solidity >=0.4.22 <0.9.0;\r\n\r\n\r\ncontract Marketplace {\r\n    enum State {\r\n        Purchased,\r\n        Activated,\r\n        Deactivated\r\n    }\r\n\r\n    struct Course {\r\n        bytes32 courseHash;\r\n        uint256 id; //32 bytes\r\n        uint256 price; //32 bytes\r\n        bytes32 proof; // 32 bytes\r\n        address owner; // 20 bytes\r\n        State state; // 1 byte uint8=8bits\r\n    }\r\n\r\n    mapping(bytes32 => Course) private ownedCourses;\r\n\r\n    mapping(uint256 => bytes32) private ownedCourseHash;\r\n    //number of all courses and id of the courses\r\n    uint256 totalCoursesOwned;\r\n\r\n    address payable private owner;\r\n\r\n    constructor(){\r\n\r\n        setContractOwner(msg.sender);\r\n\r\n    }\r\n\r\n    //0x31343130343734\r\n    //0x5B38Da6a701c568545dCfcB03FcB875f56beddC4\r\n    //0x00000000000000000000000000000313\r\n    //0x0000000000000000000000000000000000000000000000000000000000003130\r\n    //address + courseId = 000000000000000000000000000031305B38Da6a701c568545dCfcB03FcB875f56beddC4\r\n\r\n    //keccak256(abi.encodePacked(0xc4eaa3558504e2baa2669001b43f359b8418b44a4477ff417b4b007d7cc86e37))\r\n    function purchaseCourse(\r\n        bytes16 courseId, // 10 ascii - 3130 hex => 0x00000000000000000000000000003130 + 0x => 32 chars      0xc4eaa3558504e2baa2669001b43f359b8418b44a4477ff417b4b007d7cc86e37\r\n        bytes32 proof\r\n    ) external payable returns (bytes32) {\r\n        bytes32 courseHash = keccak256(abi.encodePacked(courseId, msg.sender));\r\n        require(!checkOwner(courseHash), \"You have already purchased this course!\");\r\n        uint256 id = totalCoursesOwned++;\r\n        ownedCourseHash[id] = courseHash;\r\n        ownedCourses[courseHash] = Course({\r\n            courseHash:courseHash,\r\n            id: id,\r\n            price: msg.value,\r\n            proof: proof,\r\n            owner: msg.sender,\r\n            state: State.Purchased\r\n        });\r\n\r\n        return courseHash;\r\n    }\r\n\r\n    function getCourse (bytes32 courseHash) //get course by hash\r\n    external\r\n    view \r\n    returns(Course memory) {\r\n\r\n        return ownedCourses[courseHash];\r\n    }\r\n\r\n    function getNumberOfCourses() external view returns(uint){\r\n    \r\n\r\n    return totalCoursesOwned;\r\n\r\n    }\r\n\r\n    function getOwner() external view returns (address){\r\n        return owner;\r\n    }\r\n\r\n    function getCourseHash(uint id) external view returns(bytes32){\r\n\r\n\r\n        return ownedCourseHash[id];\r\n    }\r\n\r\n    function checkOwner(bytes32 courseHash) private view returns(bool){\r\n    \r\n        address courseOwner = ownedCourses[courseHash].owner;\r\n        \r\n\r\n        return courseOwner == msg.sender;\r\n        \r\n    \r\n    }\r\n\r\n    function transferOwnership(address newOwner)external onlyOwner{\r\n\r\n        setContractOwner(newOwner);\r\n    }\r\n\r\n    function setContractOwner(address newOwner) private {\r\n\r\n        owner = payable(newOwner);\r\n    }\r\n\r\n    modifier onlyOwner(){\r\n\r\n        require(msg.sender == owner, \"Only owner\");\r\n        _;\r\n    }\r\n\r\n\r\n\r\n\r\n}\r\n",
  "sourcePath": "C:\\Udemy Master solidity and ethereum\\marketplace-eth\\contracts\\CourseMarketplace.sol",
  "compiler": {
    "name": "solc",
    "version": "0.8.7+commit.e28d00a7.Emscripten.clang"
  },
  "schemaVersion": "3.4.4",
  "updatedAt": "2022-01-27T06:03:22.740Z",
  "networkType": "ethereum",
  "devdoc": {
    "kind": "dev",
    "methods": {},
    "version": 1
  },
  "userdoc": {
    "kind": "user",
    "methods": {},
    "version": 1
  }
}