{
  "contractName": "Marketplace",
  "abi": [
    {
      "inputs": [],
      "stateMutability": "nonpayable",
      "type": "constructor"
    },
    {
      "inputs": [],
      "name": "DeactivateCourse",
      "type": "error"
    },
    {
      "inputs": [],
      "name": "owner",
      "outputs": [
        {
          "internalType": "address payable",
          "name": "",
          "type": "address"
        }
      ],
      "stateMutability": "view",
      "type": "function",
      "constant": true
    },
    {
      "inputs": [
        {
          "internalType": "bytes16",
          "name": "courseId",
          "type": "bytes16"
        },
        {
          "internalType": "bytes32",
          "name": "proof",
          "type": "bytes32"
        }
      ],
      "name": "purchaseCourse",
      "outputs": [
        {
          "internalType": "bytes32",
          "name": "",
          "type": "bytes32"
        }
      ],
      "stateMutability": "payable",
      "type": "function",
      "payable": true
    },
    {
      "inputs": [
        {
          "internalType": "bytes32",
          "name": "courseHash",
          "type": "bytes32"
        }
      ],
      "name": "repurchaseCourse",
      "outputs": [],
      "stateMutability": "payable",
      "type": "function",
      "payable": true
    },
    {
      "inputs": [
        {
          "internalType": "bytes32",
          "name": "courseHash",
          "type": "bytes32"
        }
      ],
      "name": "activateCourse",
      "outputs": [],
      "stateMutability": "nonpayable",
      "type": "function"
    },
    {
      "inputs": [
        {
          "internalType": "bytes32",
          "name": "courseHash",
          "type": "bytes32"
        }
      ],
      "name": "deactivateCourse",
      "outputs": [],
      "stateMutability": "nonpayable",
      "type": "function"
    },
    {
      "inputs": [
        {
          "internalType": "address",
          "name": "newOwner",
          "type": "address"
        }
      ],
      "name": "transferOwnership",
      "outputs": [],
      "stateMutability": "nonpayable",
      "type": "function"
    },
    {
      "inputs": [
        {
          "internalType": "bytes32",
          "name": "courseHash",
          "type": "bytes32"
        }
      ],
      "name": "getCourse",
      "outputs": [
        {
          "components": [
            {
              "internalType": "bytes32",
              "name": "courseHash",
              "type": "bytes32"
            },
            {
              "internalType": "uint256",
              "name": "id",
              "type": "uint256"
            },
            {
              "internalType": "uint256",
              "name": "price",
              "type": "uint256"
            },
            {
              "internalType": "bytes32",
              "name": "proof",
              "type": "bytes32"
            },
            {
              "internalType": "address",
              "name": "owner",
              "type": "address"
            },
            {
              "internalType": "enum Marketplace.State",
              "name": "state",
              "type": "uint8"
            }
          ],
          "internalType": "struct Marketplace.Course",
          "name": "",
          "type": "tuple"
        }
      ],
      "stateMutability": "view",
      "type": "function",
      "constant": true
    },
    {
      "inputs": [],
      "name": "getNumberOfCourses",
      "outputs": [
        {
          "internalType": "uint256",
          "name": "",
          "type": "uint256"
        }
      ],
      "stateMutability": "view",
      "type": "function",
      "constant": true
    },
    {
      "inputs": [],
      "name": "getOwner",
      "outputs": [
        {
          "internalType": "address",
          "name": "",
          "type": "address"
        }
      ],
      "stateMutability": "view",
      "type": "function",
      "constant": true
    },
    {
      "inputs": [
        {
          "internalType": "uint256",
          "name": "id",
          "type": "uint256"
        }
      ],
      "name": "getCourseHash",
      "outputs": [
        {
          "internalType": "bytes32",
          "name": "",
          "type": "bytes32"
        }
      ],
      "stateMutability": "view",
      "type": "function",
      "constant": true
    }
  ],
  "bytecode": "0x608060405234801561001057600080fd5b506100203361002560201b60201c565b610069565b80600360006101000a81548173ffffffffffffffffffffffffffffffffffffffff021916908373ffffffffffffffffffffffffffffffffffffffff16021790555050565b6117a9806100786000396000f3fe6080604052600436106100915760003560e01c806390ebed431161005957806390ebed431461016e578063935d7e6d14610199578063987b57b9146101c2578063d76821cb146101ff578063f2fde38b1461022f57610091565b806339262572146100965780636136e1eb146100bf5780638158045a146100db578063893d20e8146101185780638da5cb5b14610143575b600080fd5b3480156100a257600080fd5b506100bd60048036038101906100b89190610ed0565b610258565b005b6100d960048036038101906100d49190610ed0565b6104bd565b005b3480156100e757600080fd5b5061010260048036038101906100fd9190610efd565b610673565b60405161010f91906111fd565b60405180910390f35b34801561012457600080fd5b5061012d610690565b60405161013a91906111c7565b60405180910390f35b34801561014f57600080fd5b506101586106ba565b60405161016591906111e2565b60405180910390f35b34801561017a57600080fd5b506101836106e0565b6040516101909190611333565b60405180910390f35b3480156101a557600080fd5b506101c060048036038101906101bb9190610ed0565b6106ea565b005b3480156101ce57600080fd5b506101e960048036038101906101e49190610ed0565b6109b5565b6040516101f69190611318565b60405180910390f35b61021960048036038101906102149190610e90565b610a9a565b60405161022691906111fd565b60405180910390f35b34801561023b57600080fd5b5061025660048036038101906102519190610e63565b610c59565b005b600360009054906101000a900473ffffffffffffffffffffffffffffffffffffffff1673ffffffffffffffffffffffffffffffffffffffff163373ffffffffffffffffffffffffffffffffffffffff16146102e8576040517f08c379a00000000000000000000000000000000000000000000000000000000081526004016102df90611218565b60405180910390fd5b80600073ffffffffffffffffffffffffffffffffffffffff1660008083815260200190815260200160002060040160009054906101000a900473ffffffffffffffffffffffffffffffffffffffff1673ffffffffffffffffffffffffffffffffffffffff16141561038e576040517f08c379a000000000000000000000000000000000000000000000000000000000815260040161038590611298565b60405180910390fd5b600080600084815260200190815260200160002090506002808111156103b7576103b66114b9565b5b8160040160149054906101000a900460ff1660028111156103db576103da6114b9565b5b1415610413576040517f1632830700000000000000000000000000000000000000000000000000000000815260040160405180910390fd5b60006002811115610427576104266114b9565b5b8160040160149054906101000a900460ff16600281111561044b5761044a6114b9565b5b1461048b576040517f08c379a0000000000000000000000000000000000000000000000000000000008152600401610482906112f8565b60405180910390fd5b60018160040160146101000a81548160ff021916908360028111156104b3576104b26114b9565b5b0217905550505050565b80600073ffffffffffffffffffffffffffffffffffffffff1660008083815260200190815260200160002060040160009054906101000a900473ffffffffffffffffffffffffffffffffffffffff1673ffffffffffffffffffffffffffffffffffffffff161415610563576040517f08c379a000000000000000000000000000000000000000000000000000000000815260040161055a90611298565b60405180910390fd5b61056c82610cf5565b6105ab576040517f08c379a00000000000000000000000000000000000000000000000000000000081526004016105a290611258565b60405180910390fd5b600080600084815260200190815260200160002090506002808111156105d4576105d36114b9565b5b8160040160149054906101000a900460ff1660028111156105f8576105f76114b9565b5b14610638576040517f08c379a000000000000000000000000000000000000000000000000000000000815260040161062f906112b8565b60405180910390fd5b60008160040160146101000a81548160ff021916908360028111156106605761065f6114b9565b5b0217905550348160020181905550505050565b600060016000838152602001908152602001600020549050919050565b6000600360009054906101000a900473ffffffffffffffffffffffffffffffffffffffff16905090565b600360009054906101000a900473ffffffffffffffffffffffffffffffffffffffff1681565b6000600254905090565b600360009054906101000a900473ffffffffffffffffffffffffffffffffffffffff1673ffffffffffffffffffffffffffffffffffffffff163373ffffffffffffffffffffffffffffffffffffffff161461077a576040517f08c379a000000000000000000000000000000000000000000000000000000000815260040161077190611218565b60405180910390fd5b80600073ffffffffffffffffffffffffffffffffffffffff1660008083815260200190815260200160002060040160009054906101000a900473ffffffffffffffffffffffffffffffffffffffff1673ffffffffffffffffffffffffffffffffffffffff161415610820576040517f08c379a000000000000000000000000000000000000000000000000000000000815260040161081790611298565b60405180910390fd5b60008060008481526020019081526020016000209050600280811115610849576108486114b9565b5b8160040160149054906101000a900460ff16600281111561086d5761086c6114b9565b5b14156108ae576040517f08c379a00000000000000000000000000000000000000000000000000000000081526004016108a590611238565b60405180910390fd5b60008160040160009054906101000a900473ffffffffffffffffffffffffffffffffffffffff1673ffffffffffffffffffffffffffffffffffffffff1682600201546040516108fc906111b2565b60006040518083038185875af1925050503d8060008114610939576040519150601f19603f3d011682016040523d82523d6000602084013e61093e565b606091505b5050905080610982576040517f08c379a0000000000000000000000000000000000000000000000000000000008152600401610979906112d8565b60405180910390fd5b60028260040160146101000a81548160ff021916908360028111156109aa576109a96114b9565b5b021790555050505050565b6109bd610dab565b6000808381526020019081526020016000206040518060c0016040529081600082015481526020016001820154815260200160028201548152602001600382015481526020016004820160009054906101000a900473ffffffffffffffffffffffffffffffffffffffff1673ffffffffffffffffffffffffffffffffffffffff1673ffffffffffffffffffffffffffffffffffffffff1681526020016004820160149054906101000a900460ff166002811115610a7d57610a7c6114b9565b5b6002811115610a8f57610a8e6114b9565b5b815250509050919050565b6000808333604051602001610ab0929190611186565b604051602081830303815290604052805190602001209050610ad181610cf5565b15610b11576040517f08c379a0000000000000000000000000000000000000000000000000000000008152600401610b0890611278565b60405180910390fd5b600060026000815480929190610b2690611413565b9190505590508160016000838152602001908152602001600020819055506040518060c001604052808381526020018281526020013481526020018581526020013373ffffffffffffffffffffffffffffffffffffffff16815260200160006002811115610b9757610b966114b9565b5b8152506000808481526020019081526020016000206000820151816000015560208201518160010155604082015181600201556060820151816003015560808201518160040160006101000a81548173ffffffffffffffffffffffffffffffffffffffff021916908373ffffffffffffffffffffffffffffffffffffffff16021790555060a08201518160040160146101000a81548160ff02191690836002811115610c4657610c456114b9565b5b0217905550905050819250505092915050565b600360009054906101000a900473ffffffffffffffffffffffffffffffffffffffff1673ffffffffffffffffffffffffffffffffffffffff163373ffffffffffffffffffffffffffffffffffffffff1614610ce9576040517f08c379a0000000000000000000000000000000000000000000000000000000008152600401610ce090611218565b60405180910390fd5b610cf281610d67565b50565b60008060008084815260200190815260200160002060040160009054906101000a900473ffffffffffffffffffffffffffffffffffffffff1690503373ffffffffffffffffffffffffffffffffffffffff168173ffffffffffffffffffffffffffffffffffffffff1614915050919050565b80600360006101000a81548173ffffffffffffffffffffffffffffffffffffffff021916908373ffffffffffffffffffffffffffffffffffffffff16021790555050565b6040518060c0016040528060008019168152602001600081526020016000815260200160008019168152602001600073ffffffffffffffffffffffffffffffffffffffff16815260200160006002811115610e0957610e086114b9565b5b81525090565b600081359050610e1e81611717565b92915050565b600081359050610e338161172e565b92915050565b600081359050610e4881611745565b92915050565b600081359050610e5d8161175c565b92915050565b600060208284031215610e7957610e786114e8565b5b6000610e8784828501610e0f565b91505092915050565b60008060408385031215610ea757610ea66114e8565b5b6000610eb585828601610e24565b9250506020610ec685828601610e39565b9150509250929050565b600060208284031215610ee657610ee56114e8565b5b6000610ef484828501610e39565b91505092915050565b600060208284031215610f1357610f126114e8565b5b6000610f2184828501610e4e565b91505092915050565b610f338161137c565b82525050565b610f428161136a565b82525050565b610f518161136a565b82525050565b610f68610f638261136a565b61145c565b82525050565b610f7f610f7a8261138e565b61146e565b82525050565b610f8e816113ba565b82525050565b610f9d816113ba565b82525050565b610fac81611401565b82525050565b6000610fbf600a83611359565b9150610fca826114fa565b602082019050919050565b6000610fe2601e83611359565b9150610fed82611523565b602082019050919050565b6000611005603583611359565b91506110108261154c565b604082019050919050565b6000611028602783611359565b91506110338261159b565b604082019050919050565b600061104b602383611359565b9150611056826115ea565b604082019050919050565b600061106e603483611359565b915061107982611639565b604082019050919050565b6000611091602683611359565b915061109c82611688565b604082019050919050565b60006110b460008361134e565b91506110bf826116d7565b600082019050919050565b60006110d7601c83611359565b91506110e2826116da565b602082019050919050565b60c0820160008201516111036000850182610f85565b5060208201516111166020850182611168565b5060408201516111296040850182611168565b50606082015161113c6060850182610f85565b50608082015161114f6080850182610f39565b5060a082015161116260a0850182610fa3565b50505050565b611171816113f7565b82525050565b611180816113f7565b82525050565b60006111928285610f6e565b6010820191506111a28284610f57565b6014820191508190509392505050565b60006111bd826110a7565b9150819050919050565b60006020820190506111dc6000830184610f48565b92915050565b60006020820190506111f76000830184610f2a565b92915050565b60006020820190506112126000830184610f94565b92915050565b6000602082019050818103600083015261123181610fb2565b9050919050565b6000602082019050818103600083015261125181610fd5565b9050919050565b6000602082019050818103600083015261127181610ff8565b9050919050565b600060208201905081810360008301526112918161101b565b9050919050565b600060208201905081810360008301526112b18161103e565b9050919050565b600060208201905081810360008301526112d181611061565b9050919050565b600060208201905081810360008301526112f181611084565b9050919050565b60006020820190508181036000830152611311816110ca565b9050919050565b600060c08201905061132d60008301846110ed565b92915050565b60006020820190506113486000830184611177565b92915050565b600081905092915050565b600082825260208201905092915050565b6000611375826113d7565b9050919050565b6000611387826113d7565b9050919050565b60007fffffffffffffffffffffffffffffffff0000000000000000000000000000000082169050919050565b6000819050919050565b60008190506113d282611703565b919050565b600073ffffffffffffffffffffffffffffffffffffffff82169050919050565b6000819050919050565b600061140c826113c4565b9050919050565b600061141e826113f7565b91507fffffffffffffffffffffffffffffffffffffffffffffffffffffffffffffffff8214156114515761145061148a565b5b600182019050919050565b600061146782611478565b9050919050565b6000819050919050565b6000611483826114ed565b9050919050565b7f4e487b7100000000000000000000000000000000000000000000000000000000600052601160045260246000fd5b7f4e487b7100000000000000000000000000000000000000000000000000000000600052602160045260246000fd5b600080fd5b60008160601b9050919050565b7f4f6e6c79206f776e657200000000000000000000000000000000000000000000600082015250565b7f436f7572736520697320616c7265616479206465616374697661746564210000600082015250565b7f596f7520617265206e6f7420746865206f776e6572206f662074686520636f7560008201527f7273652c2063616e607420726570757263686173650000000000000000000000602082015250565b7f596f75206861766520616c72656164792070757263686173656420746869732060008201527f636f757273652100000000000000000000000000000000000000000000000000602082015250565b7f54686520636f7572736520707572636861736520646f6573206e6f742065786960008201527f7374210000000000000000000000000000000000000000000000000000000000602082015250565b7f546f2070757263686173652074686520636f757273652074686520737461746560008201527f206d757374206265204465616374697661746564000000000000000000000000602082015250565b7f5472616e7366657220746f206f776e6572206f662074686520636f757273652060008201527f6661696c65640000000000000000000000000000000000000000000000000000602082015250565b50565b7f436f7572736520697320616c7265616479206163746976617465642100000000600082015250565b60038110611714576117136114b9565b5b50565b6117208161136a565b811461172b57600080fd5b50565b6117378161138e565b811461174257600080fd5b50565b61174e816113ba565b811461175957600080fd5b50565b611765816113f7565b811461177057600080fd5b5056fea26469706673582212208b72dbde235ab76b136915a4f16064d26488d470ba5c4624862965e1d3ecb72364736f6c63430008070033",
  "immutableReferences": {},
  "source": "// SPDX-License-Identifier: MIT\r\npragma solidity >=0.4.22 <0.9.0;\r\n\r\ncontract Marketplace {\r\n    enum State {\r\n        Purchased,\r\n        Activated,\r\n        Deactivated\r\n    }\r\n\r\n    struct Course {\r\n        bytes32 courseHash;\r\n        uint256 id; //32 bytes\r\n        uint256 price; //32 bytes\r\n        bytes32 proof; // 32 bytes\r\n        address owner; // 20 bytes\r\n        State state; // 1 byte uint8=8bits\r\n    }\r\n\r\n    mapping(bytes32 => Course) private ownedCourses;\r\n\r\n    mapping(uint256 => bytes32) private ownedCourseHash;\r\n    //number of all courses and id of the courses\r\n    uint256 totalCoursesOwned;\r\n\r\n    address payable public owner;\r\n\r\n    constructor() {\r\n        setContractOwner(msg.sender);\r\n    }\r\n\r\n\r\n\r\n      /// Cannot activate deactivated course, must me repurchased first!\r\n      error DeactivateCourse();\r\n\r\n    //0x31343130343734\r\n    //0x5B38Da6a701c568545dCfcB03FcB875f56beddC4\r\n    //0x00000000000000000000000000000313 course id bytes16\r\n    //0x0000000000000000000000000000000000000000000000000000000000003130 course proof bytes32\r\n    //address + courseId = 000000000000000000000000000031305B38Da6a701c568545dCfcB03FcB875f56beddC4\r\n\r\n    //keccak256(abi.encodePacked(0xc4eaa3558504e2baa2669001b43f359b8418b44a4477ff417b4b007d7cc86e37))\r\n    function purchaseCourse(\r\n        bytes16 courseId, // 10 ascii - 3130 hex => 0x00000000000000000000000000003130 + 0x => 32 chars      0xc4eaa3558504e2baa2669001b43f359b8418b44a4477ff417b4b007d7cc86e37\r\n        bytes32 proof\r\n    ) external payable returns (bytes32) {\r\n        bytes32 courseHash = keccak256(abi.encodePacked(courseId, msg.sender));\r\n        require(\r\n            !checkOwner(courseHash),\r\n            \"You have already purchased this course!\"\r\n        );\r\n        uint256 id = totalCoursesOwned++;\r\n        ownedCourseHash[id] = courseHash;\r\n        ownedCourses[courseHash] = Course({\r\n            courseHash: courseHash,\r\n            id: id,\r\n            price: msg.value,\r\n            proof: proof,\r\n            owner: msg.sender,\r\n            state: State.Purchased\r\n        });\r\n\r\n        return courseHash;\r\n    }\r\n\r\n    function repurchaseCourse(bytes32 courseHash)\r\n        external\r\n        payable\r\n        isCourseCreated(courseHash)\r\n    {\r\n\r\n        require(checkOwner(courseHash), \"You are not the owner of the course, can`t repurchase\");\r\n        Course storage course = ownedCourses[courseHash];\r\n\r\n        require(\r\n            course.state == State.Deactivated,\r\n            \"To purchase the course the state must be Deactivated\"\r\n        );\r\n        course.state = State.Purchased;\r\n        course.price = msg.value;\r\n    }\r\n\r\n    function activateCourse(bytes32 courseHash)\r\n        external\r\n        onlyOwner\r\n        isCourseCreated(courseHash)\r\n    {\r\n        Course storage course = ownedCourses[courseHash];\r\n\r\n        if(course.state == State.Deactivated){\r\n\r\n            revert DeactivateCourse();\r\n        }\r\n\r\n        require(\r\n            course.state == State.Purchased,\r\n            \"Course is already activated!\"\r\n        );\r\n\r\n        course.state = State.Activated;\r\n    }\r\n\r\n    function deactivateCourse(bytes32 courseHash)\r\n        external\r\n        onlyOwner\r\n        isCourseCreated(courseHash)\r\n    {\r\n        Course storage course = ownedCourses[courseHash];\r\n\r\n        require(\r\n            course.state != State.Deactivated,\r\n            \"Course is already deactivated!\"\r\n        );\r\n\r\n        (bool success, ) = course.owner.call{value: course.price}(\"\");\r\n        require(success, \"Transfer to owner of the course failed\");\r\n\r\n        course.state = State.Deactivated;\r\n    }\r\n\r\n    function transferOwnership(address newOwner) external onlyOwner {\r\n        setContractOwner(newOwner);\r\n    }\r\n\r\n    //------------------------------------------------------helper functions----------------------------------------------\r\n\r\n    function getCourse(\r\n        bytes32 courseHash //get course by hash\r\n    ) external view returns (Course memory) {\r\n        return ownedCourses[courseHash];\r\n    }\r\n\r\n    function getNumberOfCourses() external view returns (uint256) {\r\n        return totalCoursesOwned;\r\n    }\r\n\r\n    function getOwner() external view returns (address) {\r\n        return owner;\r\n    }\r\n\r\n    function getCourseHash(uint256 id) external view returns (bytes32) {\r\n        return ownedCourseHash[id];\r\n    }\r\n\r\n    function checkOwner(bytes32 courseHash) private view returns (bool) {\r\n        address courseOwner = ownedCourses[courseHash].owner;\r\n\r\n        return courseOwner == msg.sender;\r\n    }\r\n\r\n    function setContractOwner(address newOwner) private {\r\n        owner = payable(newOwner);\r\n    }\r\n\r\n    //------------------------------------------------------modifiers----------------------------------------------\r\n    modifier onlyOwner() {\r\n        require(msg.sender == owner, \"Only owner\");\r\n        _;\r\n    }\r\n\r\n    modifier isCourseCreated(bytes32 _courseHash) {\r\n        require(\r\n            ownedCourses[_courseHash].owner !=\r\n                0x0000000000000000000000000000000000000000,\r\n            \"The course purchase does not exist!\"\r\n        );\r\n        _;\r\n    }\r\n}\r\n",
  "sourcePath": "C:\\Udemy Master solidity and ethereum\\marketplace-eth\\contracts\\CourseMarketplace.sol",
  "compiler": {
    "name": "solc",
    "version": "0.8.7+commit.e28d00a7.Emscripten.clang"
  },
  "schemaVersion": "3.4.4",
  "updatedAt": "2022-01-30T11:49:09.949Z",
  "networkType": "ethereum",
  "devdoc": {
    "kind": "dev",
    "methods": {},
    "version": 1
  },
  "userdoc": {
    "errors": {
      "DeactivateCourse()": [
        {
          "notice": "Cannot activate deactivated course, must me repurchased first!"
        }
      ]
    },
    "kind": "user",
    "methods": {},
    "version": 1
  }
}