{
  "contractName": "Marketplace",
  "abi": [
    {
      "inputs": [],
      "stateMutability": "nonpayable",
      "type": "constructor"
    },
    {
      "inputs": [],
      "name": "owner",
      "outputs": [
        {
          "internalType": "address payable",
          "name": "",
          "type": "address"
        }
      ],
      "stateMutability": "view",
      "type": "function",
      "constant": true
    },
    {
      "inputs": [
        {
          "internalType": "bytes16",
          "name": "courseId",
          "type": "bytes16"
        },
        {
          "internalType": "bytes32",
          "name": "proof",
          "type": "bytes32"
        }
      ],
      "name": "purchaseCourse",
      "outputs": [
        {
          "internalType": "bytes32",
          "name": "",
          "type": "bytes32"
        }
      ],
      "stateMutability": "payable",
      "type": "function",
      "payable": true
    },
    {
      "inputs": [
        {
          "internalType": "bytes32",
          "name": "courseHash",
          "type": "bytes32"
        }
      ],
      "name": "activateCourse",
      "outputs": [],
      "stateMutability": "nonpayable",
      "type": "function"
    },
    {
      "inputs": [
        {
          "internalType": "bytes32",
          "name": "courseHash",
          "type": "bytes32"
        }
      ],
      "name": "deactivateCourse",
      "outputs": [],
      "stateMutability": "nonpayable",
      "type": "function"
    },
    {
      "inputs": [
        {
          "internalType": "bytes32",
          "name": "courseHash",
          "type": "bytes32"
        }
      ],
      "name": "getCourse",
      "outputs": [
        {
          "components": [
            {
              "internalType": "bytes32",
              "name": "courseHash",
              "type": "bytes32"
            },
            {
              "internalType": "uint256",
              "name": "id",
              "type": "uint256"
            },
            {
              "internalType": "uint256",
              "name": "price",
              "type": "uint256"
            },
            {
              "internalType": "bytes32",
              "name": "proof",
              "type": "bytes32"
            },
            {
              "internalType": "address",
              "name": "owner",
              "type": "address"
            },
            {
              "internalType": "enum Marketplace.State",
              "name": "state",
              "type": "uint8"
            }
          ],
          "internalType": "struct Marketplace.Course",
          "name": "",
          "type": "tuple"
        }
      ],
      "stateMutability": "view",
      "type": "function",
      "constant": true
    },
    {
      "inputs": [],
      "name": "getNumberOfCourses",
      "outputs": [
        {
          "internalType": "uint256",
          "name": "",
          "type": "uint256"
        }
      ],
      "stateMutability": "view",
      "type": "function",
      "constant": true
    },
    {
      "inputs": [],
      "name": "getOwner",
      "outputs": [
        {
          "internalType": "address",
          "name": "",
          "type": "address"
        }
      ],
      "stateMutability": "view",
      "type": "function",
      "constant": true
    },
    {
      "inputs": [
        {
          "internalType": "uint256",
          "name": "id",
          "type": "uint256"
        }
      ],
      "name": "getCourseHash",
      "outputs": [
        {
          "internalType": "bytes32",
          "name": "",
          "type": "bytes32"
        }
      ],
      "stateMutability": "view",
      "type": "function",
      "constant": true
    },
    {
      "inputs": [
        {
          "internalType": "address",
          "name": "newOwner",
          "type": "address"
        }
      ],
      "name": "transferOwnership",
      "outputs": [],
      "stateMutability": "nonpayable",
      "type": "function"
    }
  ],
  "bytecode": "0x608060405234801561001057600080fd5b506100203361002560201b60201c565b610069565b80600360006101000a81548173ffffffffffffffffffffffffffffffffffffffff021916908373ffffffffffffffffffffffffffffffffffffffff16021790555050565b61140f806100786000396000f3fe6080604052600436106100865760003560e01c806390ebed431161005957806390ebed4314610147578063935d7e6d14610172578063987b57b91461019b578063d76821cb146101d8578063f2fde38b1461020857610086565b8063392625721461008b5780638158045a146100b4578063893d20e8146100f15780638da5cb5b1461011c575b600080fd5b34801561009757600080fd5b506100b260048036038101906100ad9190610c80565b610231565b005b3480156100c057600080fd5b506100db60048036038101906100d69190610cad565b610425565b6040516100e89190610f67565b60405180910390f35b3480156100fd57600080fd5b50610106610442565b6040516101139190610f31565b60405180910390f35b34801561012857600080fd5b5061013161046c565b60405161013e9190610f4c565b60405180910390f35b34801561015357600080fd5b5061015c610492565b604051610169919061105d565b60405180910390f35b34801561017e57600080fd5b5061019960048036038101906101949190610c80565b61049c565b005b3480156101a757600080fd5b506101c260048036038101906101bd9190610c80565b610765565b6040516101cf9190611042565b60405180910390f35b6101f260048036038101906101ed9190610c40565b61084a565b6040516101ff9190610f67565b60405180910390f35b34801561021457600080fd5b5061022f600480360381019061022a9190610c13565b610a09565b005b600360009054906101000a900473ffffffffffffffffffffffffffffffffffffffff1673ffffffffffffffffffffffffffffffffffffffff163373ffffffffffffffffffffffffffffffffffffffff16146102c1576040517f08c379a00000000000000000000000000000000000000000000000000000000081526004016102b890610f82565b60405180910390fd5b600073ffffffffffffffffffffffffffffffffffffffff1660008083815260200190815260200160002060040160009054906101000a900473ffffffffffffffffffffffffffffffffffffffff1673ffffffffffffffffffffffffffffffffffffffff161415610366576040517f08c379a000000000000000000000000000000000000000000000000000000000815260040161035d90610fc2565b60405180910390fd5b60008060008381526020019081526020016000209050600060028111156103905761038f6111e3565b5b8160040160149054906101000a900460ff1660028111156103b4576103b36111e3565b5b146103f4576040517f08c379a00000000000000000000000000000000000000000000000000000000081526004016103eb90611022565b60405180910390fd5b60018160040160146101000a81548160ff0219169083600281111561041c5761041b6111e3565b5b02179055505050565b600060016000838152602001908152602001600020549050919050565b6000600360009054906101000a900473ffffffffffffffffffffffffffffffffffffffff16905090565b600360009054906101000a900473ffffffffffffffffffffffffffffffffffffffff1681565b6000600254905090565b600360009054906101000a900473ffffffffffffffffffffffffffffffffffffffff1673ffffffffffffffffffffffffffffffffffffffff163373ffffffffffffffffffffffffffffffffffffffff161461052c576040517f08c379a000000000000000000000000000000000000000000000000000000000815260040161052390610f82565b60405180910390fd5b600073ffffffffffffffffffffffffffffffffffffffff1660008083815260200190815260200160002060040160009054906101000a900473ffffffffffffffffffffffffffffffffffffffff1673ffffffffffffffffffffffffffffffffffffffff1614156105d1576040517f08c379a00000000000000000000000000000000000000000000000000000000081526004016105c890610fc2565b60405180910390fd5b60008060008381526020019081526020016000209050600160028111156105fb576105fa6111e3565b5b8160040160149054906101000a900460ff16600281111561061f5761061e6111e3565b5b1461065f576040517f08c379a000000000000000000000000000000000000000000000000000000000815260040161065690610fa2565b60405180910390fd5b60008160040160009054906101000a900473ffffffffffffffffffffffffffffffffffffffff1673ffffffffffffffffffffffffffffffffffffffff1682600201546040516106ad90610f1c565b60006040518083038185875af1925050503d80600081146106ea576040519150601f19603f3d011682016040523d82523d6000602084013e6106ef565b606091505b5050905080610733576040517f08c379a000000000000000000000000000000000000000000000000000000000815260040161072a90611002565b60405180910390fd5b60028260040160146101000a81548160ff0219169083600281111561075b5761075a6111e3565b5b0217905550505050565b61076d610b5b565b6000808381526020019081526020016000206040518060c0016040529081600082015481526020016001820154815260200160028201548152602001600382015481526020016004820160009054906101000a900473ffffffffffffffffffffffffffffffffffffffff1673ffffffffffffffffffffffffffffffffffffffff1673ffffffffffffffffffffffffffffffffffffffff1681526020016004820160149054906101000a900460ff16600281111561082d5761082c6111e3565b5b600281111561083f5761083e6111e3565b5b815250509050919050565b6000808333604051602001610860929190610ef0565b60405160208183030381529060405280519060200120905061088181610aa5565b156108c1576040517f08c379a00000000000000000000000000000000000000000000000000000000081526004016108b890610fe2565b60405180910390fd5b6000600260008154809291906108d69061113d565b9190505590508160016000838152602001908152602001600020819055506040518060c001604052808381526020018281526020013481526020018581526020013373ffffffffffffffffffffffffffffffffffffffff16815260200160006002811115610947576109466111e3565b5b8152506000808481526020019081526020016000206000820151816000015560208201518160010155604082015181600201556060820151816003015560808201518160040160006101000a81548173ffffffffffffffffffffffffffffffffffffffff021916908373ffffffffffffffffffffffffffffffffffffffff16021790555060a08201518160040160146101000a81548160ff021916908360028111156109f6576109f56111e3565b5b0217905550905050819250505092915050565b600360009054906101000a900473ffffffffffffffffffffffffffffffffffffffff1673ffffffffffffffffffffffffffffffffffffffff163373ffffffffffffffffffffffffffffffffffffffff1614610a99576040517f08c379a0000000000000000000000000000000000000000000000000000000008152600401610a9090610f82565b60405180910390fd5b610aa281610b17565b50565b60008060008084815260200190815260200160002060040160009054906101000a900473ffffffffffffffffffffffffffffffffffffffff1690503373ffffffffffffffffffffffffffffffffffffffff168173ffffffffffffffffffffffffffffffffffffffff1614915050919050565b80600360006101000a81548173ffffffffffffffffffffffffffffffffffffffff021916908373ffffffffffffffffffffffffffffffffffffffff16021790555050565b6040518060c0016040528060008019168152602001600081526020016000815260200160008019168152602001600073ffffffffffffffffffffffffffffffffffffffff16815260200160006002811115610bb957610bb86111e3565b5b81525090565b600081359050610bce8161137d565b92915050565b600081359050610be381611394565b92915050565b600081359050610bf8816113ab565b92915050565b600081359050610c0d816113c2565b92915050565b600060208284031215610c2957610c28611212565b5b6000610c3784828501610bbf565b91505092915050565b60008060408385031215610c5757610c56611212565b5b6000610c6585828601610bd4565b9250506020610c7685828601610be9565b9150509250929050565b600060208284031215610c9657610c95611212565b5b6000610ca484828501610be9565b91505092915050565b600060208284031215610cc357610cc2611212565b5b6000610cd184828501610bfe565b91505092915050565b610ce3816110a6565b82525050565b610cf281611094565b82525050565b610d0181611094565b82525050565b610d18610d1382611094565b611186565b82525050565b610d2f610d2a826110b8565b611198565b82525050565b610d3e816110e4565b82525050565b610d4d816110e4565b82525050565b610d5c8161112b565b82525050565b6000610d6f600a83611083565b9150610d7a82611224565b602082019050919050565b6000610d92601e83611083565b9150610d9d8261124d565b602082019050919050565b6000610db5601883611083565b9150610dc082611276565b602082019050919050565b6000610dd8602783611083565b9150610de38261129f565b604082019050919050565b6000610dfb602683611083565b9150610e06826112ee565b604082019050919050565b6000610e1e600083611078565b9150610e298261133d565b600082019050919050565b6000610e41601c83611083565b9150610e4c82611340565b602082019050919050565b60c082016000820151610e6d6000850182610d35565b506020820151610e806020850182610ed2565b506040820151610e936040850182610ed2565b506060820151610ea66060850182610d35565b506080820151610eb96080850182610ce9565b5060a0820151610ecc60a0850182610d53565b50505050565b610edb81611121565b82525050565b610eea81611121565b82525050565b6000610efc8285610d1e565b601082019150610f0c8284610d07565b6014820191508190509392505050565b6000610f2782610e11565b9150819050919050565b6000602082019050610f466000830184610cf8565b92915050565b6000602082019050610f616000830184610cda565b92915050565b6000602082019050610f7c6000830184610d44565b92915050565b60006020820190508181036000830152610f9b81610d62565b9050919050565b60006020820190508181036000830152610fbb81610d85565b9050919050565b60006020820190508181036000830152610fdb81610da8565b9050919050565b60006020820190508181036000830152610ffb81610dcb565b9050919050565b6000602082019050818103600083015261101b81610dee565b9050919050565b6000602082019050818103600083015261103b81610e34565b9050919050565b600060c0820190506110576000830184610e57565b92915050565b60006020820190506110726000830184610ee1565b92915050565b600081905092915050565b600082825260208201905092915050565b600061109f82611101565b9050919050565b60006110b182611101565b9050919050565b60007fffffffffffffffffffffffffffffffff0000000000000000000000000000000082169050919050565b6000819050919050565b60008190506110fc82611369565b919050565b600073ffffffffffffffffffffffffffffffffffffffff82169050919050565b6000819050919050565b6000611136826110ee565b9050919050565b600061114882611121565b91507fffffffffffffffffffffffffffffffffffffffffffffffffffffffffffffffff82141561117b5761117a6111b4565b5b600182019050919050565b6000611191826111a2565b9050919050565b6000819050919050565b60006111ad82611217565b9050919050565b7f4e487b7100000000000000000000000000000000000000000000000000000000600052601160045260246000fd5b7f4e487b7100000000000000000000000000000000000000000000000000000000600052602160045260246000fd5b600080fd5b60008160601b9050919050565b7f4f6e6c79206f776e657200000000000000000000000000000000000000000000600082015250565b7f436f7572736520697320616c7265616479206465616374697661746564210000600082015250565b7f546865206f776e65722069732030783020616464726573730000000000000000600082015250565b7f596f75206861766520616c72656164792070757263686173656420746869732060008201527f636f757273652100000000000000000000000000000000000000000000000000602082015250565b7f5472616e7366657220746f206f776e6572206f662074686520636f757273652060008201527f6661696c65640000000000000000000000000000000000000000000000000000602082015250565b50565b7f436f7572736520697320616c7265616479206163746976617465642100000000600082015250565b6003811061137a576113796111e3565b5b50565b61138681611094565b811461139157600080fd5b50565b61139d816110b8565b81146113a857600080fd5b50565b6113b4816110e4565b81146113bf57600080fd5b50565b6113cb81611121565b81146113d657600080fd5b5056fea264697066735822122043f2baff3bf8c96c6d4e32651e650b7d097faf7cc0666004dd2c529324be5eb464736f6c63430008070033",
  "immutableReferences": {},
  "source": "// SPDX-License-Identifier: MIT\r\npragma solidity >=0.4.22 <0.9.0;\r\n\r\ncontract Marketplace {\r\n    enum State {\r\n        Purchased,\r\n        Activated,\r\n        Deactivated\r\n    }\r\n\r\n    struct Course {\r\n        bytes32 courseHash;\r\n        uint256 id; //32 bytes\r\n        uint256 price; //32 bytes\r\n        bytes32 proof; // 32 bytes\r\n        address owner; // 20 bytes\r\n        State state; // 1 byte uint8=8bits\r\n    }\r\n\r\n    mapping(bytes32 => Course) private ownedCourses;\r\n\r\n    mapping(uint256 => bytes32) private ownedCourseHash;\r\n    //number of all courses and id of the courses\r\n    uint256 totalCoursesOwned;\r\n\r\n    address payable public owner;\r\n\r\n    constructor() {\r\n        setContractOwner(msg.sender);\r\n    }\r\n\r\n    //0x31343130343734\r\n    //0x5B38Da6a701c568545dCfcB03FcB875f56beddC4\r\n    //0x00000000000000000000000000000313\r\n    //0x0000000000000000000000000000000000000000000000000000000000003130\r\n    //address + courseId = 000000000000000000000000000031305B38Da6a701c568545dCfcB03FcB875f56beddC4\r\n\r\n    //keccak256(abi.encodePacked(0xc4eaa3558504e2baa2669001b43f359b8418b44a4477ff417b4b007d7cc86e37))\r\n    function purchaseCourse(\r\n        bytes16 courseId, // 10 ascii - 3130 hex => 0x00000000000000000000000000003130 + 0x => 32 chars      0xc4eaa3558504e2baa2669001b43f359b8418b44a4477ff417b4b007d7cc86e37\r\n        bytes32 proof\r\n    ) external payable returns (bytes32) {\r\n        bytes32 courseHash = keccak256(abi.encodePacked(courseId, msg.sender));\r\n        require(\r\n            !checkOwner(courseHash),\r\n            \"You have already purchased this course!\"\r\n        );\r\n        uint256 id = totalCoursesOwned++;\r\n        ownedCourseHash[id] = courseHash;\r\n        ownedCourses[courseHash] = Course({\r\n            courseHash: courseHash,\r\n            id: id,\r\n            price: msg.value,\r\n            proof: proof,\r\n            owner: msg.sender,\r\n            state: State.Purchased\r\n        });\r\n\r\n        return courseHash;\r\n    }\r\n\r\n    function activateCourse(bytes32 courseHash) external onlyOwner {\r\n        require(\r\n            ownedCourses[courseHash].owner !=\r\n                0x0000000000000000000000000000000000000000,\r\n            \"The owner is 0x0 address\"\r\n        );\r\n\r\n        Course storage course = ownedCourses[courseHash];\r\n\r\n        require(\r\n            course.state == State.Purchased,\r\n            \"Course is already activated!\"\r\n        );\r\n\r\n        course.state = State.Activated;\r\n    }\r\n\r\n    function deactivateCourse(bytes32 courseHash) external onlyOwner {\r\n        require(\r\n            ownedCourses[courseHash].owner !=\r\n                0x0000000000000000000000000000000000000000,\r\n            \"The owner is 0x0 address\"\r\n        );\r\n\r\n        Course storage course = ownedCourses[courseHash];\r\n\r\n        require(\r\n            course.state == State.Activated,\r\n            \"Course is already deactivated!\"\r\n        );\r\n\r\n        (bool success, ) = course.owner.call{value: course.price}(\"\");\r\n        require(success, \"Transfer to owner of the course failed\");\r\n\r\n        course.state = State.Deactivated;\r\n    }\r\n\r\n    function getCourse(\r\n        bytes32 courseHash //get course by hash\r\n    ) external view returns (Course memory) {\r\n        return ownedCourses[courseHash];\r\n    }\r\n\r\n    function getNumberOfCourses() external view returns (uint256) {\r\n        return totalCoursesOwned;\r\n    }\r\n\r\n    function getOwner() external view returns (address) {\r\n        return owner;\r\n    }\r\n\r\n    function getCourseHash(uint256 id) external view returns (bytes32) {\r\n        return ownedCourseHash[id];\r\n    }\r\n\r\n    function checkOwner(bytes32 courseHash) private view returns (bool) {\r\n        address courseOwner = ownedCourses[courseHash].owner;\r\n\r\n        return courseOwner == msg.sender;\r\n    }\r\n\r\n    function transferOwnership(address newOwner) external onlyOwner {\r\n        setContractOwner(newOwner);\r\n    }\r\n\r\n    function setContractOwner(address newOwner) private {\r\n        owner = payable(newOwner);\r\n    }\r\n\r\n    modifier onlyOwner() {\r\n        require(msg.sender == owner, \"Only owner\");\r\n        _;\r\n    }\r\n}\r\n",
  "sourcePath": "C:\\Udemy Master solidity and ethereum\\marketplace-eth\\contracts\\CourseMarketplace.sol",
  "compiler": {
    "name": "solc",
    "version": "0.8.7+commit.e28d00a7.Emscripten.clang"
  },
  "schemaVersion": "3.4.4",
  "updatedAt": "2022-01-29T15:39:49.248Z",
  "networkType": "ethereum",
  "devdoc": {
    "kind": "dev",
    "methods": {},
    "version": 1
  },
  "userdoc": {
    "kind": "user",
    "methods": {},
    "version": 1
  }
}