{
  "contractName": "Marketplace",
  "abi": [
    {
      "inputs": [],
      "stateMutability": "nonpayable",
      "type": "constructor"
    },
    {
      "inputs": [],
      "name": "DeactivateCourse",
      "type": "error"
    },
    {
      "inputs": [],
      "name": "owner",
      "outputs": [
        {
          "internalType": "address payable",
          "name": "",
          "type": "address"
        }
      ],
      "stateMutability": "view",
      "type": "function",
      "constant": true
    },
    {
      "inputs": [
        {
          "internalType": "bytes16",
          "name": "courseId",
          "type": "bytes16"
        },
        {
          "internalType": "bytes32",
          "name": "proof",
          "type": "bytes32"
        }
      ],
      "name": "purchaseCourse",
      "outputs": [
        {
          "internalType": "bytes32",
          "name": "",
          "type": "bytes32"
        }
      ],
      "stateMutability": "payable",
      "type": "function",
      "payable": true
    },
    {
      "inputs": [
        {
          "internalType": "bytes32",
          "name": "courseHash",
          "type": "bytes32"
        }
      ],
      "name": "repurchaseCourse",
      "outputs": [],
      "stateMutability": "payable",
      "type": "function",
      "payable": true
    },
    {
      "inputs": [
        {
          "internalType": "bytes32",
          "name": "courseHash",
          "type": "bytes32"
        }
      ],
      "name": "activateCourse",
      "outputs": [],
      "stateMutability": "nonpayable",
      "type": "function"
    },
    {
      "inputs": [
        {
          "internalType": "bytes32",
          "name": "courseHash",
          "type": "bytes32"
        }
      ],
      "name": "deactivateCourse",
      "outputs": [],
      "stateMutability": "nonpayable",
      "type": "function"
    },
    {
      "inputs": [
        {
          "internalType": "address",
          "name": "newOwner",
          "type": "address"
        }
      ],
      "name": "transferOwnership",
      "outputs": [],
      "stateMutability": "nonpayable",
      "type": "function"
    },
    {
      "inputs": [
        {
          "internalType": "bytes32",
          "name": "courseHash",
          "type": "bytes32"
        }
      ],
      "name": "getCourse",
      "outputs": [
        {
          "components": [
            {
              "internalType": "bytes32",
              "name": "courseHash",
              "type": "bytes32"
            },
            {
              "internalType": "uint256",
              "name": "id",
              "type": "uint256"
            },
            {
              "internalType": "uint256",
              "name": "price",
              "type": "uint256"
            },
            {
              "internalType": "bytes32",
              "name": "proof",
              "type": "bytes32"
            },
            {
              "internalType": "address",
              "name": "owner",
              "type": "address"
            },
            {
              "internalType": "enum Marketplace.State",
              "name": "state",
              "type": "uint8"
            }
          ],
          "internalType": "struct Marketplace.Course",
          "name": "",
          "type": "tuple"
        }
      ],
      "stateMutability": "view",
      "type": "function",
      "constant": true
    },
    {
      "inputs": [],
      "name": "getNumberOfCourses",
      "outputs": [
        {
          "internalType": "uint256",
          "name": "",
          "type": "uint256"
        }
      ],
      "stateMutability": "view",
      "type": "function",
      "constant": true
    },
    {
      "inputs": [],
      "name": "getOwner",
      "outputs": [
        {
          "internalType": "address",
          "name": "",
          "type": "address"
        }
      ],
      "stateMutability": "view",
      "type": "function",
      "constant": true
    },
    {
      "inputs": [
        {
          "internalType": "uint256",
          "name": "id",
          "type": "uint256"
        }
      ],
      "name": "getCourseHash",
      "outputs": [
        {
          "internalType": "bytes32",
          "name": "",
          "type": "bytes32"
        }
      ],
      "stateMutability": "view",
      "type": "function",
      "constant": true
    }
  ],
  "bytecode": "0x608060405234801561001057600080fd5b506100203361002560201b60201c565b610069565b80600360006101000a81548173ffffffffffffffffffffffffffffffffffffffff021916908373ffffffffffffffffffffffffffffffffffffffff16021790555050565b6117b3806100786000396000f3fe6080604052600436106100915760003560e01c806390ebed431161005957806390ebed431461016e578063935d7e6d14610199578063987b57b9146101c2578063d76821cb146101ff578063f2fde38b1461022f57610091565b806339262572146100965780636136e1eb146100bf5780638158045a146100db578063893d20e8146101185780638da5cb5b14610143575b600080fd5b3480156100a257600080fd5b506100bd60048036038101906100b89190610eda565b610258565b005b6100d960048036038101906100d49190610eda565b6104bd565b005b3480156100e757600080fd5b5061010260048036038101906100fd9190610f07565b610673565b60405161010f9190611207565b60405180910390f35b34801561012457600080fd5b5061012d610690565b60405161013a91906111d1565b60405180910390f35b34801561014f57600080fd5b506101586106ba565b60405161016591906111ec565b60405180910390f35b34801561017a57600080fd5b506101836106e0565b604051610190919061133d565b60405180910390f35b3480156101a557600080fd5b506101c060048036038101906101bb9190610eda565b6106ea565b005b3480156101ce57600080fd5b506101e960048036038101906101e49190610eda565b6109bf565b6040516101f69190611322565b60405180910390f35b61021960048036038101906102149190610e9a565b610aa4565b6040516102269190611207565b60405180910390f35b34801561023b57600080fd5b5061025660048036038101906102519190610e6d565b610c63565b005b600360009054906101000a900473ffffffffffffffffffffffffffffffffffffffff1673ffffffffffffffffffffffffffffffffffffffff163373ffffffffffffffffffffffffffffffffffffffff16146102e8576040517f08c379a00000000000000000000000000000000000000000000000000000000081526004016102df90611222565b60405180910390fd5b80600073ffffffffffffffffffffffffffffffffffffffff1660008083815260200190815260200160002060040160009054906101000a900473ffffffffffffffffffffffffffffffffffffffff1673ffffffffffffffffffffffffffffffffffffffff16141561038e576040517f08c379a0000000000000000000000000000000000000000000000000000000008152600401610385906112a2565b60405180910390fd5b600080600084815260200190815260200160002090506002808111156103b7576103b66114c3565b5b8160040160149054906101000a900460ff1660028111156103db576103da6114c3565b5b1415610413576040517f1632830700000000000000000000000000000000000000000000000000000000815260040160405180910390fd5b60006002811115610427576104266114c3565b5b8160040160149054906101000a900460ff16600281111561044b5761044a6114c3565b5b1461048b576040517f08c379a000000000000000000000000000000000000000000000000000000000815260040161048290611302565b60405180910390fd5b60018160040160146101000a81548160ff021916908360028111156104b3576104b26114c3565b5b0217905550505050565b80600073ffffffffffffffffffffffffffffffffffffffff1660008083815260200190815260200160002060040160009054906101000a900473ffffffffffffffffffffffffffffffffffffffff1673ffffffffffffffffffffffffffffffffffffffff161415610563576040517f08c379a000000000000000000000000000000000000000000000000000000000815260040161055a906112a2565b60405180910390fd5b61056c82610cff565b6105ab576040517f08c379a00000000000000000000000000000000000000000000000000000000081526004016105a290611262565b60405180910390fd5b600080600084815260200190815260200160002090506002808111156105d4576105d36114c3565b5b8160040160149054906101000a900460ff1660028111156105f8576105f76114c3565b5b14610638576040517f08c379a000000000000000000000000000000000000000000000000000000000815260040161062f906112c2565b60405180910390fd5b60008160040160146101000a81548160ff021916908360028111156106605761065f6114c3565b5b0217905550348160020181905550505050565b600060016000838152602001908152602001600020549050919050565b6000600360009054906101000a900473ffffffffffffffffffffffffffffffffffffffff16905090565b600360009054906101000a900473ffffffffffffffffffffffffffffffffffffffff1681565b6000600254905090565b600360009054906101000a900473ffffffffffffffffffffffffffffffffffffffff1673ffffffffffffffffffffffffffffffffffffffff163373ffffffffffffffffffffffffffffffffffffffff161461077a576040517f08c379a000000000000000000000000000000000000000000000000000000000815260040161077190611222565b60405180910390fd5b80600073ffffffffffffffffffffffffffffffffffffffff1660008083815260200190815260200160002060040160009054906101000a900473ffffffffffffffffffffffffffffffffffffffff1673ffffffffffffffffffffffffffffffffffffffff161415610820576040517f08c379a0000000000000000000000000000000000000000000000000000000008152600401610817906112a2565b60405180910390fd5b60008060008481526020019081526020016000209050600280811115610849576108486114c3565b5b8160040160149054906101000a900460ff16600281111561086d5761086c6114c3565b5b14156108ae576040517f08c379a00000000000000000000000000000000000000000000000000000000081526004016108a590611242565b60405180910390fd5b60008160040160009054906101000a900473ffffffffffffffffffffffffffffffffffffffff1673ffffffffffffffffffffffffffffffffffffffff1682600201546040516108fc906111bc565b60006040518083038185875af1925050503d8060008114610939576040519150601f19603f3d011682016040523d82523d6000602084013e61093e565b606091505b5050905080610982576040517f08c379a0000000000000000000000000000000000000000000000000000000008152600401610979906112e2565b60405180910390fd5b60028260040160146101000a81548160ff021916908360028111156109aa576109a96114c3565b5b02179055506000826002018190555050505050565b6109c7610db5565b6000808381526020019081526020016000206040518060c0016040529081600082015481526020016001820154815260200160028201548152602001600382015481526020016004820160009054906101000a900473ffffffffffffffffffffffffffffffffffffffff1673ffffffffffffffffffffffffffffffffffffffff1673ffffffffffffffffffffffffffffffffffffffff1681526020016004820160149054906101000a900460ff166002811115610a8757610a866114c3565b5b6002811115610a9957610a986114c3565b5b815250509050919050565b6000808333604051602001610aba929190611190565b604051602081830303815290604052805190602001209050610adb81610cff565b15610b1b576040517f08c379a0000000000000000000000000000000000000000000000000000000008152600401610b1290611282565b60405180910390fd5b600060026000815480929190610b309061141d565b9190505590508160016000838152602001908152602001600020819055506040518060c001604052808381526020018281526020013481526020018581526020013373ffffffffffffffffffffffffffffffffffffffff16815260200160006002811115610ba157610ba06114c3565b5b8152506000808481526020019081526020016000206000820151816000015560208201518160010155604082015181600201556060820151816003015560808201518160040160006101000a81548173ffffffffffffffffffffffffffffffffffffffff021916908373ffffffffffffffffffffffffffffffffffffffff16021790555060a08201518160040160146101000a81548160ff02191690836002811115610c5057610c4f6114c3565b5b0217905550905050819250505092915050565b600360009054906101000a900473ffffffffffffffffffffffffffffffffffffffff1673ffffffffffffffffffffffffffffffffffffffff163373ffffffffffffffffffffffffffffffffffffffff1614610cf3576040517f08c379a0000000000000000000000000000000000000000000000000000000008152600401610cea90611222565b60405180910390fd5b610cfc81610d71565b50565b60008060008084815260200190815260200160002060040160009054906101000a900473ffffffffffffffffffffffffffffffffffffffff1690503373ffffffffffffffffffffffffffffffffffffffff168173ffffffffffffffffffffffffffffffffffffffff1614915050919050565b80600360006101000a81548173ffffffffffffffffffffffffffffffffffffffff021916908373ffffffffffffffffffffffffffffffffffffffff16021790555050565b6040518060c0016040528060008019168152602001600081526020016000815260200160008019168152602001600073ffffffffffffffffffffffffffffffffffffffff16815260200160006002811115610e1357610e126114c3565b5b81525090565b600081359050610e2881611721565b92915050565b600081359050610e3d81611738565b92915050565b600081359050610e528161174f565b92915050565b600081359050610e6781611766565b92915050565b600060208284031215610e8357610e826114f2565b5b6000610e9184828501610e19565b91505092915050565b60008060408385031215610eb157610eb06114f2565b5b6000610ebf85828601610e2e565b9250506020610ed085828601610e43565b9150509250929050565b600060208284031215610ef057610eef6114f2565b5b6000610efe84828501610e43565b91505092915050565b600060208284031215610f1d57610f1c6114f2565b5b6000610f2b84828501610e58565b91505092915050565b610f3d81611386565b82525050565b610f4c81611374565b82525050565b610f5b81611374565b82525050565b610f72610f6d82611374565b611466565b82525050565b610f89610f8482611398565b611478565b82525050565b610f98816113c4565b82525050565b610fa7816113c4565b82525050565b610fb68161140b565b82525050565b6000610fc9600a83611363565b9150610fd482611504565b602082019050919050565b6000610fec601e83611363565b9150610ff78261152d565b602082019050919050565b600061100f603583611363565b915061101a82611556565b604082019050919050565b6000611032602783611363565b915061103d826115a5565b604082019050919050565b6000611055602383611363565b9150611060826115f4565b604082019050919050565b6000611078603483611363565b915061108382611643565b604082019050919050565b600061109b602683611363565b91506110a682611692565b604082019050919050565b60006110be600083611358565b91506110c9826116e1565b600082019050919050565b60006110e1601c83611363565b91506110ec826116e4565b602082019050919050565b60c08201600082015161110d6000850182610f8f565b5060208201516111206020850182611172565b5060408201516111336040850182611172565b5060608201516111466060850182610f8f565b5060808201516111596080850182610f43565b5060a082015161116c60a0850182610fad565b50505050565b61117b81611401565b82525050565b61118a81611401565b82525050565b600061119c8285610f78565b6010820191506111ac8284610f61565b6014820191508190509392505050565b60006111c7826110b1565b9150819050919050565b60006020820190506111e66000830184610f52565b92915050565b60006020820190506112016000830184610f34565b92915050565b600060208201905061121c6000830184610f9e565b92915050565b6000602082019050818103600083015261123b81610fbc565b9050919050565b6000602082019050818103600083015261125b81610fdf565b9050919050565b6000602082019050818103600083015261127b81611002565b9050919050565b6000602082019050818103600083015261129b81611025565b9050919050565b600060208201905081810360008301526112bb81611048565b9050919050565b600060208201905081810360008301526112db8161106b565b9050919050565b600060208201905081810360008301526112fb8161108e565b9050919050565b6000602082019050818103600083015261131b816110d4565b9050919050565b600060c08201905061133760008301846110f7565b92915050565b60006020820190506113526000830184611181565b92915050565b600081905092915050565b600082825260208201905092915050565b600061137f826113e1565b9050919050565b6000611391826113e1565b9050919050565b60007fffffffffffffffffffffffffffffffff0000000000000000000000000000000082169050919050565b6000819050919050565b60008190506113dc8261170d565b919050565b600073ffffffffffffffffffffffffffffffffffffffff82169050919050565b6000819050919050565b6000611416826113ce565b9050919050565b600061142882611401565b91507fffffffffffffffffffffffffffffffffffffffffffffffffffffffffffffffff82141561145b5761145a611494565b5b600182019050919050565b600061147182611482565b9050919050565b6000819050919050565b600061148d826114f7565b9050919050565b7f4e487b7100000000000000000000000000000000000000000000000000000000600052601160045260246000fd5b7f4e487b7100000000000000000000000000000000000000000000000000000000600052602160045260246000fd5b600080fd5b60008160601b9050919050565b7f4f6e6c79206f776e657200000000000000000000000000000000000000000000600082015250565b7f436f7572736520697320616c7265616479206465616374697661746564210000600082015250565b7f596f7520617265206e6f7420746865206f776e6572206f662074686520636f7560008201527f7273652c2063616e607420726570757263686173650000000000000000000000602082015250565b7f596f75206861766520616c72656164792070757263686173656420746869732060008201527f636f757273652100000000000000000000000000000000000000000000000000602082015250565b7f54686520636f7572736520707572636861736520646f6573206e6f742065786960008201527f7374210000000000000000000000000000000000000000000000000000000000602082015250565b7f546f2070757263686173652074686520636f757273652074686520737461746560008201527f206d757374206265204465616374697661746564000000000000000000000000602082015250565b7f5472616e7366657220746f206f776e6572206f662074686520636f757273652060008201527f6661696c65640000000000000000000000000000000000000000000000000000602082015250565b50565b7f436f7572736520697320616c7265616479206163746976617465642100000000600082015250565b6003811061171e5761171d6114c3565b5b50565b61172a81611374565b811461173557600080fd5b50565b61174181611398565b811461174c57600080fd5b50565b611758816113c4565b811461176357600080fd5b50565b61176f81611401565b811461177a57600080fd5b5056fea2646970667358221220baaa9a8c28b86942f3cab7e07e4f114a437d1cde173305a78d39dc92b1edde5564736f6c63430008070033",
  "immutableReferences": {},
  "source": "// SPDX-License-Identifier: MIT\r\npragma solidity >=0.4.22 <0.9.0;\r\n\r\ncontract Marketplace {\r\n    enum State {\r\n        Purchased,\r\n        Activated,\r\n        Deactivated\r\n    }\r\n\r\n    struct Course {\r\n        bytes32 courseHash;\r\n        uint256 id; //32 bytes\r\n        uint256 price; //32 bytes\r\n        bytes32 proof; // 32 bytes\r\n        address owner; // 20 bytes\r\n        State state; // 1 byte uint8=8bits\r\n    }\r\n\r\n    mapping(bytes32 => Course) private ownedCourses;\r\n\r\n    mapping(uint256 => bytes32) private ownedCourseHash;\r\n    \r\n    uint256 totalCoursesOwned;\r\n\r\n    address payable public owner;\r\n\r\n    constructor() {\r\n        setContractOwner(msg.sender);\r\n    }\r\n\r\n\r\n\r\n      /// Cannot activate deactivated course, must me repurchased first!\r\n      error DeactivateCourse();\r\n\r\n  \r\n    function purchaseCourse(\r\n        bytes16 courseId, // 10 ascii - 3130 hex => 0x00000000000000000000000000003130 + 0x => 32 chars     \r\n        bytes32 proof\r\n    ) external payable returns (bytes32) {\r\n        bytes32 courseHash = keccak256(abi.encodePacked(courseId, msg.sender));\r\n        require(\r\n            !checkOwner(courseHash),\r\n            \"You have already purchased this course!\"\r\n        );\r\n        uint256 id = totalCoursesOwned++;\r\n        ownedCourseHash[id] = courseHash;\r\n        ownedCourses[courseHash] = Course({\r\n            courseHash: courseHash,\r\n            id: id,\r\n            price: msg.value,\r\n            proof: proof,\r\n            owner: msg.sender,\r\n            state: State.Purchased\r\n        });\r\n\r\n        return courseHash;\r\n    }\r\n\r\n    function repurchaseCourse(bytes32 courseHash)\r\n        external\r\n        payable\r\n        isCourseCreated(courseHash)\r\n    {\r\n\r\n        require(checkOwner(courseHash), \"You are not the owner of the course, can`t repurchase\");\r\n        Course storage course = ownedCourses[courseHash];\r\n\r\n        require(\r\n            course.state == State.Deactivated,\r\n            \"To purchase the course the state must be Deactivated\"\r\n        );\r\n        course.state = State.Purchased;\r\n        course.price = msg.value;\r\n    }\r\n\r\n    function activateCourse(bytes32 courseHash)\r\n        external\r\n        onlyOwner\r\n        isCourseCreated(courseHash)\r\n    {\r\n        Course storage course = ownedCourses[courseHash];\r\n\r\n        if(course.state == State.Deactivated){\r\n\r\n            revert DeactivateCourse();\r\n        }\r\n\r\n        require(\r\n            course.state == State.Purchased,\r\n            \"Course is already activated!\"\r\n        );\r\n\r\n        course.state = State.Activated;\r\n    }\r\n\r\n    function deactivateCourse(bytes32 courseHash)\r\n        external\r\n        onlyOwner\r\n        isCourseCreated(courseHash)\r\n    {\r\n        Course storage course = ownedCourses[courseHash];\r\n\r\n        require(\r\n            course.state != State.Deactivated,\r\n            \"Course is already deactivated!\"\r\n        );\r\n\r\n        (bool success, ) = course.owner.call{value: course.price}(\"\");\r\n        require(success, \"Transfer to owner of the course failed\");\r\n\r\n        course.state = State.Deactivated;\r\n        course.price = 0;\r\n    }\r\n\r\n    function transferOwnership(address newOwner) external onlyOwner {\r\n        setContractOwner(newOwner);\r\n    }\r\n\r\n    //------------------------------------------------------getter functions----------------------------------------------\r\n\r\n    function getCourse(\r\n        bytes32 courseHash //get course by hash\r\n    ) external view returns (Course memory) {\r\n        return ownedCourses[courseHash];\r\n    }\r\n\r\n    function getNumberOfCourses() external view returns (uint256) {\r\n        return totalCoursesOwned;\r\n    }\r\n\r\n    function getOwner() external view returns (address) {\r\n        return owner;\r\n    }\r\n\r\n    function getCourseHash(uint256 id) external view returns (bytes32) {\r\n        return ownedCourseHash[id];\r\n    }\r\n\r\n    function checkOwner(bytes32 courseHash) private view returns (bool) {\r\n        address courseOwner = ownedCourses[courseHash].owner;\r\n\r\n        return courseOwner == msg.sender;\r\n    }\r\n\r\n    function setContractOwner(address newOwner) private {\r\n        owner = payable(newOwner);\r\n    }\r\n\r\n    //------------------------------------------------------modifiers----------------------------------------------\r\n    modifier onlyOwner() {\r\n        require(msg.sender == owner, \"Only owner\");\r\n        _;\r\n    }\r\n\r\n    modifier isCourseCreated(bytes32 _courseHash) {\r\n        require(\r\n            ownedCourses[_courseHash].owner !=\r\n                0x0000000000000000000000000000000000000000,\r\n            \"The course purchase does not exist!\"\r\n        );\r\n        _;\r\n    }\r\n}\r\n",
  "sourcePath": "C:\\Udemy Master solidity and ethereum\\marketplace-eth\\contracts\\CourseMarketplace.sol",
  "compiler": {
    "name": "solc",
    "version": "0.8.7+commit.e28d00a7.Emscripten.clang"
  },
  "schemaVersion": "3.4.4",
  "updatedAt": "2022-01-31T15:24:37.613Z",
  "networkType": "ethereum",
  "devdoc": {
    "kind": "dev",
    "methods": {},
    "version": 1
  },
  "userdoc": {
    "errors": {
      "DeactivateCourse()": [
        {
          "notice": "Cannot activate deactivated course, must me repurchased first!"
        }
      ]
    },
    "kind": "user",
    "methods": {},
    "version": 1
  }
}