{
  "contractName": "Marketplace",
  "abi": [
    {
      "inputs": [],
      "stateMutability": "nonpayable",
      "type": "constructor"
    },
    {
      "inputs": [],
      "name": "DeactivateCourse",
      "type": "error"
    },
    {
      "inputs": [],
      "name": "owner",
      "outputs": [
        {
          "internalType": "address payable",
          "name": "",
          "type": "address"
        }
      ],
      "stateMutability": "view",
      "type": "function",
      "constant": true
    },
    {
      "inputs": [
        {
          "internalType": "bytes16",
          "name": "courseId",
          "type": "bytes16"
        },
        {
          "internalType": "bytes32",
          "name": "proof",
          "type": "bytes32"
        }
      ],
      "name": "purchaseCourse",
      "outputs": [
        {
          "internalType": "bytes32",
          "name": "",
          "type": "bytes32"
        }
      ],
      "stateMutability": "payable",
      "type": "function",
      "payable": true
    },
    {
      "inputs": [
        {
          "internalType": "bytes32",
          "name": "courseHash",
          "type": "bytes32"
        }
      ],
      "name": "repurchaseCourse",
      "outputs": [],
      "stateMutability": "payable",
      "type": "function",
      "payable": true
    },
    {
      "inputs": [
        {
          "internalType": "bytes32",
          "name": "courseHash",
          "type": "bytes32"
        }
      ],
      "name": "activateCourse",
      "outputs": [],
      "stateMutability": "nonpayable",
      "type": "function"
    },
    {
      "inputs": [
        {
          "internalType": "bytes32",
          "name": "courseHash",
          "type": "bytes32"
        }
      ],
      "name": "deactivateCourse",
      "outputs": [],
      "stateMutability": "nonpayable",
      "type": "function"
    },
    {
      "inputs": [
        {
          "internalType": "address",
          "name": "newOwner",
          "type": "address"
        }
      ],
      "name": "transferOwnership",
      "outputs": [],
      "stateMutability": "nonpayable",
      "type": "function"
    },
    {
      "inputs": [
        {
          "internalType": "uint256",
          "name": "amount",
          "type": "uint256"
        }
      ],
      "name": "withdrawFunds",
      "outputs": [],
      "stateMutability": "nonpayable",
      "type": "function"
    },
    {
      "inputs": [
        {
          "internalType": "bytes32",
          "name": "courseHash",
          "type": "bytes32"
        }
      ],
      "name": "getCourse",
      "outputs": [
        {
          "components": [
            {
              "internalType": "bytes32",
              "name": "courseHash",
              "type": "bytes32"
            },
            {
              "internalType": "uint256",
              "name": "id",
              "type": "uint256"
            },
            {
              "internalType": "uint256",
              "name": "price",
              "type": "uint256"
            },
            {
              "internalType": "bytes32",
              "name": "proof",
              "type": "bytes32"
            },
            {
              "internalType": "address",
              "name": "owner",
              "type": "address"
            },
            {
              "internalType": "enum Marketplace.State",
              "name": "state",
              "type": "uint8"
            }
          ],
          "internalType": "struct Marketplace.Course",
          "name": "",
          "type": "tuple"
        }
      ],
      "stateMutability": "view",
      "type": "function",
      "constant": true
    },
    {
      "inputs": [],
      "name": "getNumberOfCourses",
      "outputs": [
        {
          "internalType": "uint256",
          "name": "",
          "type": "uint256"
        }
      ],
      "stateMutability": "view",
      "type": "function",
      "constant": true
    },
    {
      "inputs": [],
      "name": "getOwner",
      "outputs": [
        {
          "internalType": "address",
          "name": "",
          "type": "address"
        }
      ],
      "stateMutability": "view",
      "type": "function",
      "constant": true
    },
    {
      "inputs": [
        {
          "internalType": "uint256",
          "name": "id",
          "type": "uint256"
        }
      ],
      "name": "getCourseHash",
      "outputs": [
        {
          "internalType": "bytes32",
          "name": "",
          "type": "bytes32"
        }
      ],
      "stateMutability": "view",
      "type": "function",
      "constant": true
    }
  ],
  "bytecode": "0x608060405234801561001057600080fd5b506100203361002560201b60201c565b610069565b80600360006101000a81548173ffffffffffffffffffffffffffffffffffffffff021916908373ffffffffffffffffffffffffffffffffffffffff16021790555050565b611ab6806100786000396000f3fe60806040526004361061009c5760003560e01c80638da5cb5b116100645780638da5cb5b1461017757806390ebed43146101a2578063935d7e6d146101cd578063987b57b9146101f6578063d76821cb14610233578063f2fde38b146102635761009c565b8063155dd5ee146100a157806339262572146100ca5780636136e1eb146100f35780638158045a1461010f578063893d20e81461014c575b600080fd5b3480156100ad57600080fd5b506100c860048036038101906100c391906110e6565b61028c565b005b3480156100d657600080fd5b506100f160048036038101906100ec91906110b9565b610437565b005b61010d600480360381019061010891906110b9565b61069c565b005b34801561011b57600080fd5b50610136600480360381019061013191906110e6565b610852565b604051610143919061142c565b60405180910390f35b34801561015857600080fd5b5061016161086f565b60405161016e91906113f6565b60405180910390f35b34801561018357600080fd5b5061018c610899565b6040516101999190611411565b60405180910390f35b3480156101ae57600080fd5b506101b76108bf565b6040516101c491906115a2565b60405180910390f35b3480156101d957600080fd5b506101f460048036038101906101ef91906110b9565b6108c9565b005b34801561020257600080fd5b5061021d600480360381019061021891906110b9565b610b9e565b60405161022a9190611587565b60405180910390f35b61024d60048036038101906102489190611079565b610c83565b60405161025a919061142c565b60405180910390f35b34801561026f57600080fd5b5061028a6004803603810190610285919061104c565b610e42565b005b600360009054906101000a900473ffffffffffffffffffffffffffffffffffffffff1673ffffffffffffffffffffffffffffffffffffffff163373ffffffffffffffffffffffffffffffffffffffff161461031c576040517f08c379a000000000000000000000000000000000000000000000000000000000815260040161031390611447565b60405180910390fd5b600047905081811015610364576040517f08c379a000000000000000000000000000000000000000000000000000000000815260040161035b90611547565b60405180910390fd5b6000600360009054906101000a900473ffffffffffffffffffffffffffffffffffffffff1673ffffffffffffffffffffffffffffffffffffffff16836040516103ac906113e1565b60006040518083038185875af1925050503d80600081146103e9576040519150601f19603f3d011682016040523d82523d6000602084013e6103ee565b606091505b5050905080610432576040517f08c379a000000000000000000000000000000000000000000000000000000000815260040161042990611467565b60405180910390fd5b505050565b600360009054906101000a900473ffffffffffffffffffffffffffffffffffffffff1673ffffffffffffffffffffffffffffffffffffffff163373ffffffffffffffffffffffffffffffffffffffff16146104c7576040517f08c379a00000000000000000000000000000000000000000000000000000000081526004016104be90611447565b60405180910390fd5b80600073ffffffffffffffffffffffffffffffffffffffff1660008083815260200190815260200160002060040160009054906101000a900473ffffffffffffffffffffffffffffffffffffffff1673ffffffffffffffffffffffffffffffffffffffff16141561056d576040517f08c379a0000000000000000000000000000000000000000000000000000000008152600401610564906114e7565b60405180910390fd5b6000806000848152602001908152602001600020905060028081111561059657610595611728565b5b8160040160149054906101000a900460ff1660028111156105ba576105b9611728565b5b14156105f2576040517f1632830700000000000000000000000000000000000000000000000000000000815260040160405180910390fd5b6000600281111561060657610605611728565b5b8160040160149054906101000a900460ff16600281111561062a57610629611728565b5b1461066a576040517f08c379a000000000000000000000000000000000000000000000000000000000815260040161066190611567565b60405180910390fd5b60018160040160146101000a81548160ff0219169083600281111561069257610691611728565b5b0217905550505050565b80600073ffffffffffffffffffffffffffffffffffffffff1660008083815260200190815260200160002060040160009054906101000a900473ffffffffffffffffffffffffffffffffffffffff1673ffffffffffffffffffffffffffffffffffffffff161415610742576040517f08c379a0000000000000000000000000000000000000000000000000000000008152600401610739906114e7565b60405180910390fd5b61074b82610ede565b61078a576040517f08c379a0000000000000000000000000000000000000000000000000000000008152600401610781906114a7565b60405180910390fd5b600080600084815260200190815260200160002090506002808111156107b3576107b2611728565b5b8160040160149054906101000a900460ff1660028111156107d7576107d6611728565b5b14610817576040517f08c379a000000000000000000000000000000000000000000000000000000000815260040161080e90611507565b60405180910390fd5b60008160040160146101000a81548160ff0219169083600281111561083f5761083e611728565b5b0217905550348160020181905550505050565b600060016000838152602001908152602001600020549050919050565b6000600360009054906101000a900473ffffffffffffffffffffffffffffffffffffffff16905090565b600360009054906101000a900473ffffffffffffffffffffffffffffffffffffffff1681565b6000600254905090565b600360009054906101000a900473ffffffffffffffffffffffffffffffffffffffff1673ffffffffffffffffffffffffffffffffffffffff163373ffffffffffffffffffffffffffffffffffffffff1614610959576040517f08c379a000000000000000000000000000000000000000000000000000000000815260040161095090611447565b60405180910390fd5b80600073ffffffffffffffffffffffffffffffffffffffff1660008083815260200190815260200160002060040160009054906101000a900473ffffffffffffffffffffffffffffffffffffffff1673ffffffffffffffffffffffffffffffffffffffff1614156109ff576040517f08c379a00000000000000000000000000000000000000000000000000000000081526004016109f6906114e7565b60405180910390fd5b60008060008481526020019081526020016000209050600280811115610a2857610a27611728565b5b8160040160149054906101000a900460ff166002811115610a4c57610a4b611728565b5b1415610a8d576040517f08c379a0000000000000000000000000000000000000000000000000000000008152600401610a8490611487565b60405180910390fd5b60008160040160009054906101000a900473ffffffffffffffffffffffffffffffffffffffff1673ffffffffffffffffffffffffffffffffffffffff168260020154604051610adb906113e1565b60006040518083038185875af1925050503d8060008114610b18576040519150601f19603f3d011682016040523d82523d6000602084013e610b1d565b606091505b5050905080610b61576040517f08c379a0000000000000000000000000000000000000000000000000000000008152600401610b5890611527565b60405180910390fd5b60028260040160146101000a81548160ff02191690836002811115610b8957610b88611728565b5b02179055506000826002018190555050505050565b610ba6610f94565b6000808381526020019081526020016000206040518060c0016040529081600082015481526020016001820154815260200160028201548152602001600382015481526020016004820160009054906101000a900473ffffffffffffffffffffffffffffffffffffffff1673ffffffffffffffffffffffffffffffffffffffff1673ffffffffffffffffffffffffffffffffffffffff1681526020016004820160149054906101000a900460ff166002811115610c6657610c65611728565b5b6002811115610c7857610c77611728565b5b815250509050919050565b6000808333604051602001610c999291906113b5565b604051602081830303815290604052805190602001209050610cba81610ede565b15610cfa576040517f08c379a0000000000000000000000000000000000000000000000000000000008152600401610cf1906114c7565b60405180910390fd5b600060026000815480929190610d0f90611682565b9190505590508160016000838152602001908152602001600020819055506040518060c001604052808381526020018281526020013481526020018581526020013373ffffffffffffffffffffffffffffffffffffffff16815260200160006002811115610d8057610d7f611728565b5b8152506000808481526020019081526020016000206000820151816000015560208201518160010155604082015181600201556060820151816003015560808201518160040160006101000a81548173ffffffffffffffffffffffffffffffffffffffff021916908373ffffffffffffffffffffffffffffffffffffffff16021790555060a08201518160040160146101000a81548160ff02191690836002811115610e2f57610e2e611728565b5b0217905550905050819250505092915050565b600360009054906101000a900473ffffffffffffffffffffffffffffffffffffffff1673ffffffffffffffffffffffffffffffffffffffff163373ffffffffffffffffffffffffffffffffffffffff1614610ed2576040517f08c379a0000000000000000000000000000000000000000000000000000000008152600401610ec990611447565b60405180910390fd5b610edb81610f50565b50565b60008060008084815260200190815260200160002060040160009054906101000a900473ffffffffffffffffffffffffffffffffffffffff1690503373ffffffffffffffffffffffffffffffffffffffff168173ffffffffffffffffffffffffffffffffffffffff1614915050919050565b80600360006101000a81548173ffffffffffffffffffffffffffffffffffffffff021916908373ffffffffffffffffffffffffffffffffffffffff16021790555050565b6040518060c0016040528060008019168152602001600081526020016000815260200160008019168152602001600073ffffffffffffffffffffffffffffffffffffffff16815260200160006002811115610ff257610ff1611728565b5b81525090565b60008135905061100781611a24565b92915050565b60008135905061101c81611a3b565b92915050565b60008135905061103181611a52565b92915050565b60008135905061104681611a69565b92915050565b60006020828403121561106257611061611757565b5b600061107084828501610ff8565b91505092915050565b600080604083850312156110905761108f611757565b5b600061109e8582860161100d565b92505060206110af85828601611022565b9150509250929050565b6000602082840312156110cf576110ce611757565b5b60006110dd84828501611022565b91505092915050565b6000602082840312156110fc576110fb611757565b5b600061110a84828501611037565b91505092915050565b61111c816115eb565b82525050565b61112b816115d9565b82525050565b61113a816115d9565b82525050565b61115161114c826115d9565b6116cb565b82525050565b611168611163826115fd565b6116dd565b82525050565b61117781611629565b82525050565b61118681611629565b82525050565b61119581611670565b82525050565b60006111a8600a836115c8565b91506111b382611769565b602082019050919050565b60006111cb6029836115c8565b91506111d682611792565b604082019050919050565b60006111ee601e836115c8565b91506111f9826117e1565b602082019050919050565b60006112116035836115c8565b915061121c8261180a565b604082019050919050565b60006112346027836115c8565b915061123f82611859565b604082019050919050565b60006112576023836115c8565b9150611262826118a8565b604082019050919050565b600061127a6034836115c8565b9150611285826118f7565b604082019050919050565b600061129d6026836115c8565b91506112a882611946565b604082019050919050565b60006112c06000836115bd565b91506112cb82611995565b600082019050919050565b60006112e36036836115c8565b91506112ee82611998565b604082019050919050565b6000611306601c836115c8565b9150611311826119e7565b602082019050919050565b60c082016000820151611332600085018261116e565b5060208201516113456020850182611397565b5060408201516113586040850182611397565b50606082015161136b606085018261116e565b50608082015161137e6080850182611122565b5060a082015161139160a085018261118c565b50505050565b6113a081611666565b82525050565b6113af81611666565b82525050565b60006113c18285611157565b6010820191506113d18284611140565b6014820191508190509392505050565b60006113ec826112b3565b9150819050919050565b600060208201905061140b6000830184611131565b92915050565b60006020820190506114266000830184611113565b92915050565b6000602082019050611441600083018461117d565b92915050565b600060208201905081810360008301526114608161119b565b9050919050565b60006020820190508181036000830152611480816111be565b9050919050565b600060208201905081810360008301526114a0816111e1565b9050919050565b600060208201905081810360008301526114c081611204565b9050919050565b600060208201905081810360008301526114e081611227565b9050919050565b600060208201905081810360008301526115008161124a565b9050919050565b600060208201905081810360008301526115208161126d565b9050919050565b6000602082019050818103600083015261154081611290565b9050919050565b60006020820190508181036000830152611560816112d6565b9050919050565b60006020820190508181036000830152611580816112f9565b9050919050565b600060c08201905061159c600083018461131c565b92915050565b60006020820190506115b760008301846113a6565b92915050565b600081905092915050565b600082825260208201905092915050565b60006115e482611646565b9050919050565b60006115f682611646565b9050919050565b60007fffffffffffffffffffffffffffffffff0000000000000000000000000000000082169050919050565b6000819050919050565b600081905061164182611a10565b919050565b600073ffffffffffffffffffffffffffffffffffffffff82169050919050565b6000819050919050565b600061167b82611633565b9050919050565b600061168d82611666565b91507fffffffffffffffffffffffffffffffffffffffffffffffffffffffffffffffff8214156116c0576116bf6116f9565b5b600182019050919050565b60006116d6826116e7565b9050919050565b6000819050919050565b60006116f28261175c565b9050919050565b7f4e487b7100000000000000000000000000000000000000000000000000000000600052601160045260246000fd5b7f4e487b7100000000000000000000000000000000000000000000000000000000600052602160045260246000fd5b600080fd5b60008160601b9050919050565b7f4f6e6c79206f776e657200000000000000000000000000000000000000000000600082015250565b7f546865207472616e73666572206f662066756e647320776173206e6f7420737560008201527f636365737366756c210000000000000000000000000000000000000000000000602082015250565b7f436f7572736520697320616c7265616479206465616374697661746564210000600082015250565b7f596f7520617265206e6f7420746865206f776e6572206f662074686520636f7560008201527f7273652c2063616e607420726570757263686173650000000000000000000000602082015250565b7f596f75206861766520616c72656164792070757263686173656420746869732060008201527f636f757273652100000000000000000000000000000000000000000000000000602082015250565b7f54686520636f7572736520707572636861736520646f6573206e6f742065786960008201527f7374210000000000000000000000000000000000000000000000000000000000602082015250565b7f546f2070757263686173652074686520636f757273652074686520737461746560008201527f206d757374206265204465616374697661746564000000000000000000000000602082015250565b7f5472616e7366657220746f206f776e6572206f662074686520636f757273652060008201527f6661696c65640000000000000000000000000000000000000000000000000000602082015250565b50565b7f54686520776974686472617720616d6f756e7420697320657863656564696e6760008201527f2074686520636f6e7472616374732062616c616e636500000000000000000000602082015250565b7f436f7572736520697320616c7265616479206163746976617465642100000000600082015250565b60038110611a2157611a20611728565b5b50565b611a2d816115d9565b8114611a3857600080fd5b50565b611a44816115fd565b8114611a4f57600080fd5b50565b611a5b81611629565b8114611a6657600080fd5b50565b611a7281611666565b8114611a7d57600080fd5b5056fea26469706673582212207ed15e57fd6d0f235f8bffc1846942b36067becf2488afcde553a18b383c3ee064736f6c63430008070033",
  "immutableReferences": {},
  "source": "// SPDX-License-Identifier: MIT\r\npragma solidity >=0.4.22 <0.9.0;\r\n\r\ncontract Marketplace {\r\n    enum State {\r\n        Purchased,\r\n        Activated,\r\n        Deactivated\r\n    }\r\n\r\n    struct Course {\r\n        bytes32 courseHash;\r\n        uint256 id; //32 bytes\r\n        uint256 price; //32 bytes\r\n        bytes32 proof; // 32 bytes\r\n        address owner; // 20 bytes\r\n        State state; // 1 byte uint8=8bits\r\n    }\r\n\r\n    mapping(bytes32 => Course) private ownedCourses;\r\n\r\n    mapping(uint256 => bytes32) private ownedCourseHash;\r\n\r\n    uint256 totalCoursesOwned;\r\n\r\n    address payable public owner;\r\n\r\n    constructor() {\r\n        setContractOwner(msg.sender);\r\n    }\r\n\r\n    /// Cannot activate deactivated course, must me repurchased first!\r\n    error DeactivateCourse();\r\n\r\n    function purchaseCourse(\r\n        bytes16 courseId, // 10 ascii - 3130 hex => 0x00000000000000000000000000003130 + 0x => 32 chars\r\n        bytes32 proof\r\n    ) external payable returns (bytes32) {\r\n        bytes32 courseHash = keccak256(abi.encodePacked(courseId, msg.sender));\r\n        require(\r\n            !checkOwner(courseHash),\r\n            \"You have already purchased this course!\"\r\n        );\r\n        uint256 id = totalCoursesOwned++;\r\n        ownedCourseHash[id] = courseHash;\r\n        ownedCourses[courseHash] = Course({\r\n            courseHash: courseHash,\r\n            id: id,\r\n            price: msg.value,\r\n            proof: proof,\r\n            owner: msg.sender,\r\n            state: State.Purchased\r\n        });\r\n\r\n        return courseHash;\r\n    }\r\n\r\n    function repurchaseCourse(bytes32 courseHash)\r\n        external\r\n        payable\r\n        isCourseCreated(courseHash)\r\n    {\r\n        require(\r\n            checkOwner(courseHash),\r\n            \"You are not the owner of the course, can`t repurchase\"\r\n        );\r\n        Course storage course = ownedCourses[courseHash];\r\n\r\n        require(\r\n            course.state == State.Deactivated,\r\n            \"To purchase the course the state must be Deactivated\"\r\n        );\r\n        course.state = State.Purchased;\r\n        course.price = msg.value;\r\n    }\r\n\r\n    function activateCourse(bytes32 courseHash)\r\n        external\r\n        onlyOwner\r\n        isCourseCreated(courseHash)\r\n    {\r\n        Course storage course = ownedCourses[courseHash];\r\n\r\n        if (course.state == State.Deactivated) {\r\n            revert DeactivateCourse();\r\n        }\r\n\r\n        require(\r\n            course.state == State.Purchased,\r\n            \"Course is already activated!\"\r\n        );\r\n\r\n        course.state = State.Activated;\r\n    }\r\n\r\n    function deactivateCourse(bytes32 courseHash)\r\n        external\r\n        onlyOwner\r\n        isCourseCreated(courseHash)\r\n    {\r\n        Course storage course = ownedCourses[courseHash];\r\n\r\n        require(\r\n            course.state != State.Deactivated,\r\n            \"Course is already deactivated!\"\r\n        );\r\n\r\n        (bool success, ) = course.owner.call{value: course.price}(\"\");\r\n        require(success, \"Transfer to owner of the course failed\");\r\n\r\n        course.state = State.Deactivated;\r\n        course.price = 0;\r\n    }\r\n\r\n    function transferOwnership(address newOwner) external onlyOwner {\r\n        setContractOwner(newOwner);\r\n    }\r\n\r\n    function withdrawFunds(uint amount) external onlyOwner {\r\n        uint256 contractFunds = address(this).balance;\r\n        require(contractFunds >= amount , \"The withdraw amount is exceeding the contracts balance\");\r\n        (bool success, ) = owner.call{value: amount}(\"\");\r\n        require(success, \"The transfer of funds was not successful!\");\r\n    }\r\n\r\n    //------------------------------------------------------getter functions----------------------------------------------\r\n\r\n    function getCourse(\r\n        bytes32 courseHash //get course by hash\r\n    ) external view returns (Course memory) {\r\n        return ownedCourses[courseHash];\r\n    }\r\n\r\n    function getNumberOfCourses() external view returns (uint256) {\r\n        return totalCoursesOwned;\r\n    }\r\n\r\n    function getOwner() external view returns (address) {\r\n        return owner;\r\n    }\r\n\r\n    function getCourseHash(uint256 id) external view returns (bytes32) {\r\n        return ownedCourseHash[id];\r\n    }\r\n\r\n    function checkOwner(bytes32 courseHash) private view returns (bool) {\r\n        address courseOwner = ownedCourses[courseHash].owner;\r\n\r\n        return courseOwner == msg.sender;\r\n    }\r\n\r\n    function setContractOwner(address newOwner) private {\r\n        owner = payable(newOwner);\r\n    }\r\n\r\n    //------------------------------------------------------modifiers----------------------------------------------\r\n    modifier onlyOwner() {\r\n        require(msg.sender == owner, \"Only owner\");\r\n        _;\r\n    }\r\n\r\n    modifier isCourseCreated(bytes32 _courseHash) {\r\n        require(\r\n            ownedCourses[_courseHash].owner !=\r\n                0x0000000000000000000000000000000000000000,\r\n            \"The course purchase does not exist!\"\r\n        );\r\n        _;\r\n    }\r\n}\r\n",
  "sourcePath": "C:\\Udemy Master solidity and ethereum\\marketplace-eth\\contracts\\CourseMarketplace.sol",
  "compiler": {
    "name": "solc",
    "version": "0.8.7+commit.e28d00a7.Emscripten.clang"
  },
  "schemaVersion": "3.4.4",
  "updatedAt": "2022-02-01T09:32:18.530Z",
  "networkType": "ethereum",
  "devdoc": {
    "kind": "dev",
    "methods": {},
    "version": 1
  },
  "userdoc": {
    "errors": {
      "DeactivateCourse()": [
        {
          "notice": "Cannot activate deactivated course, must me repurchased first!"
        }
      ]
    },
    "kind": "user",
    "methods": {},
    "version": 1
  }
}